:1000000033C000004DC000004BC0000049C00000DC
:1000100047C0000045C0000043C0000041C00000D0
:100020003FC000003DC000003BC0000039C00000E0
:1000300037C0000035C0000033C0000031C00000F0
:100040002FC000002DC00000C5C7000029C000005F
:1000500027C0000025C0000023C0000021C0000010
:100060001FC000001DC0000011241FBECFEFD8E04C
:10007000DEBFCDBF12E0A0E0B1E0EAEAF2E102C0EB
:1000800005900D92AE33B107D9F714E0AEE3B2E0BC
:1000900001C01D92A539B107E1F732D60C9453097E
:1000A000AFCFCF92DF92EF92FF920F931F936B012E
:1000B0007C0120E030E040E05FE4D1D287FD0CC05D
:1000C00020E030E040E05FE4C701B60194D11BD3EB
:1000D0008B019C01305805C0C701B60114D38B01B8
:1000E0009C01B801C9011F910F91FF90EF90DF9023
:1000F000CF900895A4E0B0E0E0E8F0E00C941E0991
:100100007C016A01FC018081823008F44AC1FB0154
:100110009081923008F442C1843079F4943009F02F
:1001200040C1F7019181FB018181981709F439C120
:10013000AEE0EA2EA1E0FA2E34C1943009F42EC1CB
:10014000923091F4823009F02CC188E0F701DA0195
:1001500001900D928A95E1F7FB018181F701918170
:100160008923FA0181831CC1823009F417C1F70188
:1001700082819381FB01A281B381F7010481158102
:1001800026813781FB0184809580A680B780FC01A1
:10019000EA1BFB0BAF01F7FF04C0442755274E1B9A
:1001A0005F0B403251050CF074C01E161F06B4F5EB
:1001B00024013501042E04C0769467945794479423
:1001C0000A94D2F749825A826B827C82412C512C4C
:1001D0003201439404C0440C551C661C771C4A959C
:1001E000D2F741E0441A51086108710848205920AB
:1001F0006A207B20812C912C540183944528462829
:10020000472819F4812C912C540149805A806B8025
:100210007C8084289528A628B72846C0EF2B09F4AF
:1002200043C0840F951F28013901042E04C0769421
:100230006794579447940A94D2F749825A826B8202
:100240007C82412C512C3201439404C0440C551C37
:10025000661C771C4A95D2F741E0441A51086108A0
:100260007108402251226222732201E010E020E056
:1002700030E045284628472819F400E010E09801AE
:1002800049805A806B807C800429152926293729CA
:100290000BC0A817B90724F4812C912C540104C079
:1002A000CD0100E010E09801F7014181FB0151818F
:1002B000451709F446C0442349F024013501401A8A
:1002C000510A620A730A9301820104C008191909CC
:1002D0002A093B0937FD05C0F60111829383828309
:1002E0000CC041E0F60141839383828330952095D1
:1002F000109501951F4F2F4F3F4F04831583268381
:1003000037830EC0880F991FAA1FBB1FF601848375
:100310009583A683B7838281938101979383828398
:10032000F60184819581A681B781AC01BD01415060
:100330005109610971094F3F5F4F6F4F7F4310F3C0
:100340000CC0F601418393838283080D191D2A1D79
:100350003B1D048315832683378383E0F601808366
:10036000448155816681778177FF1AC0DB01CA011C
:1003700081709927AA27BB2776956795579547954A
:10038000842B952BA62BB72B84839583A683B783C9
:100390008281938101969383828302C07B0101C095
:1003A0007601C7012496E0E165C7A0E2B0E0EAED7E
:1003B000F1E052C76D8F7E8F8F8F98A3298F3A8F70
:1003C0004B8F5C8FBE016F5E7F4FCE014D9623D366
:1003D000BE01675F7F4FCE0149961DD3AE014F5FCF
:1003E0005F4FBE01675F7F4FCE01419683DE49D2EA
:1003F000A096E2E04DC7A0E2B0E0E0E0F2E02CC75A
:100400006D8F7E8F8F8F98A3298F3A8F4B8F5C8F44
:10041000BE016F5E7F4FCE014D96FDD2BE01675F7C
:100420007F4FCE014996F7D28A8591E089278A8746
:10043000AE014F5F5F4FBE01675F7F4FCE014196B8
:1004400059DE1FD2A096E2E023C7A0E2B0E0EAE2C4
:10045000F2E0F4C66D8F7E8F8F8F98A3298F3A8F2D
:100460004B8F5C8FBE016F5E7F4FCE014D96D3D216
:10047000BE01675F7F4FCE014996CDD299899230F8
:1004800008F412C08985823008F41AC0943021F42F
:10049000823009F4B4C008C0843021F4923009F4E9
:1004A000AEC00EC0923051F481E02A899A8529139A
:1004B00001C080E08A8BCE014196A3C0823051F406
:1004C00081E02A899A85291301C080E08A87CE01BC
:1004D000099697C08D889E88AF88B88C0D851E853B
:1004E0002F853889E0E2F0E080E090E0DC01C12C6B
:1004F000D12C760140E050E0BA0180FE18C0400FD8
:10050000511F621F731F8C0D9D1DAE1DBF1D412C01
:10051000512C32014394401751076207730718F0BA
:10052000412C512C3201840D951DA61DB71DCC0CFC
:10053000DD1CEE1CFF1C37FF02C06894C0F8000FE2
:10054000111F221F331FB694A79497948794319755
:10055000A1F62B893C89EB85FC852E0F3F1F2E5F72
:100560003F4F3C832B8321E0EA893A85E31301C0A6
:1005700020E02A83EB81FC810CC080FF05C07695CA
:100580006795579547957068B695A7959795879500
:100590003196B7FDF2CF9F010CC0880F991FAA1F9B
:1005A000BB1F77FD8160440F551F661F771F2150C9
:1005B00031090097A105E0E4BE0778F32B833C8363
:1005C0008C019D010F771127222733270034110555
:1005D0002105310559F487FD09C0452B462B472BD2
:1005E00029F0805C9F4FAF4FBF4F80788D839E83F3
:1005F000AF83B88783E08983CE01019602C08EE085
:1006000091E03FD1A096E0E135C6A8E1B0E0EAE094
:10061000F3E022C66D8B7E8B8F8B988F298B3A8B64
:100620004B8B5C8BBE01675F7F4FCE014596F3D14C
:10063000BE016F5F7F4FCE014196EDD1898582303B
:1006400050F08981823038F0BE016F5F7F4FCE015C
:10065000099650D201C08FEF6896E2E019C6A8E172
:10066000B0E0E4E3F3E0F8C56D8B7E8B8F8B988F61
:10067000298B3A8B4B8B5C8BBE01675F7F4FCE0122
:100680004596C9D1BE016F5F7F4FCE014196C3D160
:100690008985823050F08981823038F0BE016F5FE9
:1006A0007F4FCE01099626D201C08FEF6896E2E017
:1006B000EFC5A8E1B0E0EEE5F3E0CEC56D8B7E8B33
:1006C0008F8B988F298B3A8B4B8B5C8BBE01675F2E
:1006D0007F4FCE0145969FD1BE016F5F7F4FCE0108
:1006E000419699D18985823050F08981823038F0E5
:1006F000BE016F5F7F4FCE010996FCD101C081E042
:100700006896E2E0C5C5ACE0B0E0E8E8F3E0A2C579
:1007100069877A878B879C87BE016F5F7F4FCE0189
:10072000099679D18981823091F1823080F18430CB
:1007300041F48A81882331F100E010E020E030E8C4
:1007400029C02B813C8137FD22C02F3131058CF728
:100750008EE190E0821B930B0D811E812F813885E5
:1007600004C036952795179507958A95D2F78A8103
:10077000882381F030952095109501951F4F2F4FBC
:100780003F4F08C00FEF1FEF2FEF3FE703C000E020
:1007900010E09801B801C9012C96E4E077C5A8E003
:1007A000B0E0E4EDF3E052C58B019C011A826115C3
:1007B00071058105910519F482E089835CC083E0AD
:1007C00089834EE150E05C834B83C901B80109D5B0
:1007D000019797FF39C0EE27FF27E81BF90B41E08F
:1007E00050E060E070E00E2E04C0440F551F661FFD
:1007F000771F0A94D2F741505109610971094023CA
:10080000512362237323C12CD12C7601C394452B31
:10081000462B472B19F4C12CD12C760104C03695F8
:10082000279517950795EA95D2F70C291D292E29AA
:100830003F290D831E832F8338872EE130E0281B4C
:10084000390B3C832B8317C0009729F40D831E833B
:100850002F83388710C0082E04C0000F111F221FDD
:10086000331F0A94D2F70D831E832F833887481BCA
:10087000590B5C834B83CE01019603D02896E8E0A8
:1008800001C50F931F93CF93DF93DC0114964D9115
:100890005D916D917C9117971196EC9111978C91C8
:1008A000823020F460618FEF90E0A6C0843009F4BC
:1008B0009EC0823009F495C041155105610571054E
:1008C00009F492C012962D913C91139722388FEF24
:1008D00038070CF058C0C2E8DFEFC21BD30BCA3197
:1008E000D1056CF58A019B010C2E04C03695279525
:1008F000179507950A94D2F781E090E0A0E0B0E068
:100900000C2E04C0880F991FAA1FBB1F0A94D2F790
:100910000197A109B10984239523A623B72341E0B8
:1009200050E060E070E0892B8A2B8B2B19F440E0BB
:1009300050E0BA01402B512B622B732B03C040E0D7
:1009400050E0BA01DB01CA018F779927AA27BB279C
:1009500080349105A105B10539F447FF09C0405C19
:100960005F4F6F4F7F4F04C0415C5F4F6F4F7F4FB2
:1009700081E090E041155105610520E4720748F5DA
:1009800080E090E026C0203831058CF5DB01CA01FB
:100990008F779927AA27BB2780349105A105B10538
:1009A00039F447FF09C0405C5F4F6F4F7F4F04C071
:1009B000415C5F4F6F4F7F4F77FD04C0C901815885
:1009C0009F4F07C07695679557954795C901805801
:1009D0009F4F97E076956795579547959A95D1F7EC
:1009E0000BC080E090E005C080E090E005C08FEF94
:1009F00090E040E050E0BA01982F9695E0FB97F91F
:100A0000362F80FB37F9642F752F832FDF91CF911D
:100A10001F910F910895CF92DF92EF92DC01FB01BD
:100A2000CC901196DC90119712968C9112973FE71B
:100A3000E32EE8226E2DA60170E0982F991F9927CA
:100A4000991F13962C91822F880F892B90E027FBFA
:100A5000222720F92183009729F5411551056105C9
:100A6000710511F482E027C082E89FEF93838283AF
:100A700027E0440F551F661F771F2A95D1F783E0A3
:100A8000808309C0440F551F661F771F82819381A1
:100A900001979383828341155105610580E47807AE
:100AA00088F320C08F3F910579F441155105610508
:100AB000710519F484E0808319C0E4FE03C081E06D
:100AC000808310C010820EC08F5791099383828358
:100AD00083E0808387E0440F551F661F771F8A9548
:100AE000D1F770644483558366837783EF90DF90FA
:100AF000CF900895CF93FC01DB019081923008F4F0
:100B000052C08C91823008F44EC0943071F484301D
:100B100039F411962C9130E08181281B310948C0AD
:100B20008181882309F43FC03BC0843029F41196A9
:100B30008C91811138C034C0923019F48230B9F7E9
:100B400035C0823069F3C18111968C911197C81319
:100B50001DC02281338112968D919C91139782172B
:100B600093070CF413C0281739070CF417C04481FD
:100B700055816681778114968D919D910D90BC91E0
:100B8000A02D84179507A607B70718F4C11108C050
:100B90000AC0481759076A077B0740F4C11103C010
:100BA0002FEF3FEF05C021E030E002C020E030E051
:100BB000C901CF91089568EC70E0A0E9B1E021C0CF
:100BC0002898FB013197F1F720E030E0FC014081EB
:100BD00050E0022E02C0559547950A94E2F740FF77
:100BE00002C0289A01C02898FB013197F1F72F5FC6
:100BF0003F4F2830310551F7289AFD013197F1F721
:100C00000196FC0120812111DBCF08959091C00055
:100C100095FFFCCF8093C60090E0089590917F02ED
:100C200080917E029817D1F3E0917E02F0E0E25CC1
:100C3000FD4F408150E020917E0230E02F5F3F4F1A
:100C40002F73332720937E024D30510539F3CA01AB
:100C50000895DF92EF92FF920F931F93CF93DF934C
:100C6000EC01F894809188048D7F809388048091B2
:100C700088048B7F8093880480918804877F809389
:100C80008804809188048F7E809388047894D12C86
:100C900080EDE82E87E0F82E09C0FE01E00FF11F7D
:100CA0008081B4DFC7010197F1F7D3940D2D10E0D7
:100CB000CE01B9D20817190780F3DF91CF911F91A8
:100CC0000F91FF90EF90DF90089588E99AE328EC68
:100CD00030E0F9013197F1F70197D9F786E191E01A
:100CE000B8DF88E99AE328EC30E0F9013197F1F7B1
:100CF0000197D9F7F89410928304789480E00895CE
:100D00001092C50083E38093C40088E98093C100FA
:100D100080E091E0909392048093910490939004EA
:100D200080938F04789481E084B985B98AE191E059
:100D300042DFC8ECD0E090E2A92E9EE4B92E689480
:100D400090F8689491F8689492F890FE80C085E2DB
:100D500091E031DFF89410928304789408EE13E068
:100D600087E391E028DF89E391E073DF88EE93E089
:100D7000FE013197F1F70197D9F78091880481FD41
:100D80004DC0F89488EF9AE2FE013197F1F7019790
:100D9000D9F786E191E05DDFB80180E090E0FFDC0B
:100DA0006B017C0120E030E04AEF54E44EDB562E2C
:100DB000672E782E892E20E030E040E85FE379DC72
:100DC00087FD23C020E03FEF4FE757E4652D762DE8
:100DD000872D982D1ADC181694F420E030E040E2BC
:100DE00051E4C701B60131DB5CD905C0CE010197E2
:100DF000F1F76150710961157105C1F7E4C0652D06
:100E0000762D872D982D4DD902C061E070E0CB0181
:100E10000197F1F7D8C008511C4FA2CF8FE391E0A2
:100E200018DFC5010197F1F78FE591E012DFC501E9
:100E30000197F1F780E891E00CDF88EE93E0FE0186
:100E40003197F1F70197D9F783EA91E0B4DE8BEAA5
:100E500091E0B1DEF89410928304789487EB91E0EE
:100E6000F8DEC5010197F1F787EB91E0F2DE88EE3D
:100E700093E0FE013197F1F70197D9F7809188044B
:100E800081FF4DC08BEB91E0E4DE8CE49DE1FE013F
:100E90003197F1F70197D9F72FEF07C084EF91E071
:100EA000FE013197F1F70197D9F78091880481FD10
:100EB00002C0215099F78091880481FF30C088EBEF
:100EC0009BE0FE013197F1F70197D9F780918804F3
:100ED00081FF0CC08091880482FD08C08091880445
:100EE00083FD04C08091880484FF04C084EC91E0F9
:100EF00062DE15C0F894109284041092850410925A
:100F000086041092870481E08093830478947EDEC7
:100F100080E07CDE8CEC91E04EDE4FEF03C087ED8D
:100F200091E04FC0F8948091840490918504A09141
:100F30008604B091870450918304789424EF31E0C3
:100F4000FE013197F1F721503109D1F7513019F4F1
:100F5000415041F702C0411103C08AEE91E01CC02C
:100F6000892B8A2B8B2B19F083EF91E015C02FEF83
:100F7000F89430918304789488EE93E0FE013197E1
:100F8000F1F70197D9F7353019F0215089F702C0F0
:100F9000211115C08DEF91E00EDE80E037DE88E88C
:100FA00093E1FE013197F1F70197D9F78EDE80E5E5
:100FB00093ECFE013197F1F70197D9F7C0CE8AE0A3
:100FC00092E0F9DDF4CF789400368AEE180708F441
:100FD00022CFC6CE1F920F920FB60F9211242F93DD
:100FE0003F934F935F936F937F938F939F93AF93B1
:100FF000BF93EF93FF934091C60080918804816076
:101000008093880480918304823009F48CC030F48A
:10101000882359F0813009F0D3C055C0833009F4DA
:10102000A0C0843009F0CCC0A6C04D30C1F5E0911D
:101030008904F0918A04ED57FD4F108262E272E05C
:1010400083E892E0E7D0892B21F4809188048260C4
:101050000AC065E272E083E892E0DCD0892B31F4CB
:101060008091880484608093880480C06BE272E081
:1010700083E892E0CFD0892B21F4809188048860A6
:10108000F2CF66E372E083E892E0C4D0892B21F4CA
:10109000809188048061E7CF8091830267C04A30E5
:1010A00009F48EC0442309F48BC080918904909187
:1010B0008A04FC01ED57FD4F4083019690938A040A
:1010C000809389047DC0242F2F7780918B04909189
:1010D0008C04A0918D04B0918E0457E0880F991F65
:1010E000AA1FBB1F5A95D1F7822B80938B04909334
:1010F0008C04A0938D04B0938E0447FD61C022E060
:10110000209383048093840490938504A0938604A1
:10111000B093870410928B0410928C0410928D046B
:1011200010928E044DC0242F2F7780918B049091C4
:101130008C04A0918D04B0918E0437E0880F991F24
:10114000AA1FBB1F3A95D1F7822B80938B049093F3
:101150008C04A0938D04B0938E0447FD31C083E0CE
:101160002DC04093820284E08093830410928A040D
:101170001092890425C02091890430918A04F901D4
:10118000ED57FD4F40832F5F3F4F30938A042093EC
:101190008904A90160E070E080918B0490918C0437
:1011A000A0918D04B0918E04481759076A077B07F8
:1011B00039F4309381022093800285E08093830488
:1011C000FF91EF91BF91AF919F918F917F916F911F
:1011D0005F914F913F912F910F900FBE0F901F90F5
:1011E000189506D084FF0895CB0102D0805F089542
:1011F000AA27992329F4A85F982B11F480E1089578
:10120000903118F4AD5F9295A395990FE8F78A2F66
:1012100099270895FB01DC018D910190801901103F
:10122000D9F3990B0895FC0101900020E9F780950E
:1012300090958E0F9F1F08952F923F924F925F922D
:101240006F927F928F929F92AF92BF92CF92DF92D6
:10125000EF92FF920F931F93CF93DF93CDB7DEB73B
:10126000CA1BDB0B0FB6F894DEBF0FBECDBF0994CF
:101270002A88398848885F846E847D848C849B8426
:10128000AA84B984C884DF80EE80FD800C811B8134
:10129000AA81B981CE0FD11D0FB6F894DEBF0FBE63
:0A12A000CDBFED010895F894FFCFD3
:1012AA00000000030000000006060E060000000011
:1012BA000000000000002B2B2B00696E697420646B
:1012CA006F6E650A006C6F6F6B696E6720666F726E
:1012DA00206D6F64656D2E2E00415445300D00411E
:1012EA00542B434744434F4E543D312C22495022FC
:1012FA002C22676F616D2E636F6D222C2C0D0041BD
:10130A005425434750434F3D312C225041502C77AE
:10131A00617075736572312C776170222C320D0001
:10132A0041542444455354494E464F3D22682E7138
:10133A0061727469732E636F6D222C312C35332CD4
:10134A00310D00666F756E64210A00636F6E6E65FB
:10135A006374696E670A0041540D004154442A3986
:10136A0037230D00666C616773210A00707574205B
:10137A006C656E20310A006661696C656420746F61
:10138A0020636F6E6E6563740A006E6F2061636B13
:10139A003F0A006261642061636B3F0A006E6F203E
:1013AA007061796C6F61643F0A0070696E672072C0
:1013BA006573706F6E73653A2074797065203F3F6C
:1013CA000A004F4B004552524F52004E4F204341A4
:0E13DA00525249455200434F4E4E4543540077
:00000001FF
