:1000000029C00000B4C0000040C000003EC0000095
:100010003CC000003AC0000038C0000036C00000FC
:1000200034C0000032C0000030C00000E9C0000051
:100030002CC000005CC0000028C0000026C00000EA
:1000400024C0000022C0000020C000001EC000002C
:100050001CC0000011241FBECFE5D8E0DEBFCDBF1D
:1000600010E0A0E6B0E0EEE9F9E002C005900D92E4
:10007000A638B107D9F710E0A6E8B0E001C01D929C
:10008000A33AB107E1F7CDD088C4BACF01C08DE063
:100090005D9BFECF8CB98A30D1F390E00895EF924A
:1000A000FF9290918800809189009817D1F3E09198
:1000B0008900F0E0E657FF4FE080F12C8091890045
:1000C00090E001968F709927809389008DE0E81663
:1000D000F10419F48AE0E82EF12C60919F007091F0
:1000E000A000C701D8D1C701FF90EF9008951F92DB
:1000F0000F920FB60F9211248F939F93EF93FF935C
:10010000E0918800F0E08CB1E657FF4F808380914A
:10011000880090E001968F70992780938800FF9166
:10012000EF919F918F910F900FBE0F901F90189598
:10013000109288001092890090BD89B988E98AB927
:100140008EE880BD80E690E09093A00080939F00B1
:1001500090939E0080939D0078940895209188004C
:100160009091890081E0291301C080E008951F92D9
:100170000F920FB60F9211242F933F938F939F935B
:1001800020919A0082992BC032B7922F80E0832B66
:1001900090939C0080939B00209186003091870073
:1001A00080919B0090919C008217930768F4809146
:1001B0009B0090919C0020953095280F391F30931B
:1001C0009C0020939B0013C080919B0090919C0009
:1001D000821B930B90939C0080939B0008C032B7C6
:1001E000922F80E0832B90938700809386009F91CD
:1001F0008F913F912F910F900FBE0F901F901895E8
:100200001F920F920FB60F9211248F9380919A0034
:100210008F5F80939A008F910F900FBE0F901F9069
:1002200018958CE090E084DF8EE690E09F938F93AA
:100230005ED180E590E597BD86BD82E28FBD8AE103
:100240008EBD85E095E099BD88BD85B7816085BF8D
:100250008BB780648BBF82E083BF81E089BF88E178
:1002600081BB0F900F9010E0E12CF12CCAE1AAE0C5
:10027000AA2EB12CBCE7CB2EB0E0DB2E08EC802EF2
:10028000912C80919B0090919C00892B19F4143043
:1002900008F441C0F894970136952795369527952F
:1002A00080919B0090919C00E0909B00F0909C00BE
:1002B000F694E7949695879596958795E80EF91E9E
:1002C000E20EF31E10929C0010929B00939A789479
:1002D0008C2F8A95F1F793989701A7EBBDE23AD05E
:1002E0008C0122273327C801B5014AD09F938F93F1
:1002F000AAE9B9E1A901980139D0AA27BB279F93A0
:100300008F93DF92CF92F3D00F900F900F900F90BA
:100310000F900F9010E022DF882399F080919D00CC
:1003200090919E0078D08D33910521F488B599B5D0
:100330000A9605C08D9729F488B599B50A9799BD95
:1003400088BD1F5F84EF91E0F4013197F1F70197C9
:10035000D9F797CFA29FB001B39FC001A39F01D04F
:10036000B29F700D811D1124911D0895F3DFA59F8B
:10037000900DB49F900DA49F800D911D11240895A0
:10038000AA1BBB1B51E107C0AA1FBB1FA617B707BB
:1003900010F0A61BB70B881F991F5A95A9F78095D7
:1003A0009095BC01CD0108952F923F924F925F929C
:1003B0006F927F928F929F92AF92BF92CF92DF9275
:1003C000EF92FF920F931F93CF93DF93CDB7DEB7DA
:1003D000CA1BDB0B0FB6F894DEBF0FBECDBF09946E
:1003E0002A88398848885F846E847D848C849B84C5
:1003F000AA84B984C884DF80EE80FD800C811B81D3
:10040000AA81B981CE0FD11D0FB6F894DEBF0FBE01
:10041000CDBFED010895CF93DF93EC013B8130FF19
:1004200034C036FF0AC03F7B3B838E819F8101969B
:100430009F838E832A8130E02AC032FF0FC0E8817B
:10044000F9818081992787FD9095009719F4306292
:100450003B831BC03196F983E8830EC0EA85FB8598
:10046000099597FF09C02B81019611F480E101C025
:1004700080E2822B8B8309C02E813F812F5F3F4F0B
:100480003F832E839C01332702C02FEF3FEFC9012A
:10049000DF91CF9108950F931F93CF93DF938C013A
:1004A000EB018B8181FD03C00FEF1FEF1AC082FFAC
:1004B0000DC02E813F818C819D812817390764F4FE
:1004C000E881F9810193F983E88306C0E885F9851D
:1004D000802F0995892B41F78E819F8101969F83FB
:1004E0008E83C801DF91CF911F910F910895A2E0F3
:1004F000B0E0ECE7F2E068CFFE01379661917191D0
:10050000FA83E983AF0180919F009091A00003D00E
:100510002296E2E075CFACE0B0E0E0E9F2E044CF53
:100520007C016B018A01FC0117821682838181FFA5
:10053000BAC188248394912C8C0E9D1EF70193815F
:10054000F60193FD859193FF81916F01882309F452
:10055000A6C1853239F493FD859193FF81916F0196
:10056000853221F4B70190E096DFE8CF712C312C71
:1005700020E02032A8F48B3261F028F4803251F070
:10058000833271F40BC08D3239F0803349F421602D
:1005900028C02260246025C0286023C0206121C0BB
:1005A00027FD27C0382F30533A3078F426FF06C095
:1005B000FAE07F9E300D1124732E13C08AE0389E1E
:1005C000300D1124332E20620CC08E3221F426FD12
:1005D00066C1206406C08C3611F4206802C08836DB
:1005E00041F4F60193FD859193FF81916F01811193
:1005F000C0CF982F9554933018F09052933028F430
:100600000C5F1F4FFFE3F9830DC0833631F0833752
:1006100071F0833509F05AC022C0F80180818983C6
:100620000E5F1F4F66246394712C540114C028017F
:10063000F2E04F0E511CF801A080B18026FF03C0EC
:10064000672D70E002C06FEF7FEFC5012C873CD1B2
:100650003C0182012C856FE7262E222217C028013B
:10066000F2E04F0E511CF801A080B18026FF03C0BC
:10067000672D70E002C06FEF7FEFC5012C8719D1A5
:100680003C012C8550E8252E222A820123FC1AC029
:1006900005C0B70180E290E0FEDE3A94832D90E041
:1006A00068167906B0F30EC0F50127FC859127FE88
:1006B00081915F01B70190E0EEDE31103A94F1E0F4
:1006C0006F1A71086114710479F7E6C0843611F06D
:1006D000893639F5F80127FF07C060817181828171
:1006E00093810C5F1F4F08C060817181882777FD5F
:1006F0008095982F0E5F1F4F4FE6642E622297FF62
:1007000009C090958095709561957F4F8F4F9F4F51
:10071000F0E86F2A2AE030E0A401E1D0A82EA81862
:1007200043C0853731F43FEEB32EB2222AE030E0E9
:1007300024C099EFB92EB2228F36B9F020F4883553
:1007400009F0ADC00DC0803721F0883709F0A7C08F
:1007500002C020E1B22AB4FE0BC084E0B82A08C06F
:1007600024FF09C0E6E0BE2A06C028E030E005C04C
:1007700020E130E002C020E132E0F801B7FE07C01E
:1007800060817181828193810C5F1F4F06C06081FF
:10079000718180E090E00E5F1F4FA401A0D0A82ED1
:1007A000A8188FE7682E6B2066FE0BC0362D3E7FA3
:1007B000A71450F464FE0AC062FC08C0362D3E7EC9
:1007C00005C0BA2C362D03C0BA2C01C0B72C34FF9B
:1007D0000DC0FE01EA0DF11D8081803311F4397ED8
:1007E00009C032FF06C0B394B39404C0832F867847
:1007F00009F0B39433FD13C030FF0EC07A2CB3144C
:1008000058F4730C7B18B32C07C0B70180E290E05A
:100810003C8741DEB3943C85B314B8F304C0B314F1
:1008200010F43B1801C0312C34FF11C0B70180E334
:1008300090E03C8730DE3C8532FF1CC031FF03C0B6
:1008400088E590E002C088E790E0B7010CC0832FF4
:10085000867881F031FD02C080E201C08BE237FD75
:100860008DE2B70190E017DE05C0B70180E390E0AC
:1008700012DE7A94A714C8F3AA94F401EA0DF11DCC
:10088000B701808190E007DEA110F6CF05C0B70167
:1008900080E290E000DE3A943110F9CF4FCEF701BC
:1008A0002681378102C02FEF3FEFC9012C96E2E18C
:1008B00097CDFC010590615070400110D8F78095EC
:1008C00090958E0F9F1F0895FC016150704001901C
:1008D0000110D8F7809590958E0F9F1F0895FA010B
:1008E000AA27283051F1203181F1E8946F936E7F6F
:1008F0006E5F7F4F8F4F9F4FAF4FB1E03ED0B4E060
:100900003CD0670F781F891F9A1FA11D680F791FA0
:100910008A1F911DA11D6A0F711D811D911DA11DB1
:1009200020D009F468943F912AE0269F11243019C1
:10093000305D3193DEF6CF010895462F4770405D5C
:100940004193B3E00FD0C9F7F6CF462F4F70405D0B
:100950004A3318F0495D31FD4052419302D0A9F766
:10096000EACFB4E0A6959795879577956795BA9560
:10097000C9F700976105710508959B01AC010A2E26
:1009800006945795479537952795BA95C9F7620FFD
:0E099000731F841F951FA01D0895F894FFCFBC
:10099E00000000030000000046004F0000007379C5
:1009AE007374656D2073746172740A0025752E253B
:0609BE007520636D0A00C4
:00000001FF
