:100000001FC039C038C037C036C035C034C033C057
:1000100032C031C030C02FC02EC02DC02CC02BC06C
:100020002AC029C08AC127C026C025C024C023C039
:1000300022C021C06364696E6F70737578585B006D
:1000400011241FBECFEFD4E0DEBFCDBF11E0A0E092
:10005000B1E0E0E2FBE002C005900D92AE33B107E3
:10006000D9F711E0AEE3B1E001C01D92A638B107A7
:10007000E1F76AD053C5C4CF01C08DE09091C000B4
:1000800095FFFCCF8093C6008A30B9F390E00895C5
:10009000CF93DF9390917F0180913E019817D1F328
:1000A000E0913E01F0E0E15CFE4FC081D0E0809144
:1000B0003E0190E001968F73992780933E01CD30E9
:1000C000D10511F4CAE0D0E08C2FD6DFCE01DF914C
:1000D000CF910895CF93DF93C82FD0E0CE016FD199
:1000E000892B11F0E79708C0CE016CD1892B19F04C
:1000F000C755D10901C0E097CE01DF91CF91089596
:100100000F931F93CF93DF93FC01319610E001C052
:100110001827EF018191882379F08A32C9F7898104
:10012000D9DF082F8A81D6DF90E1099F800D112445
:1001300021E030E0181711F020E030E0C901DF9134
:10014000CF911F910F910895CF93DF93CDB7DEB775
:10015000CE55D1090FB6F894DEBF0FBECDBF88E1F2
:100160000FB6F89480936000109260000FBE10925A
:10017000C50081E88093C40088E98093C10080E0D5
:1001800091E0909383018093820190938101809309
:100190008001789420E02E018CE5480E511C3E0130
:1001A00094E5690E711C8E01085A1F4F7E018DE582
:1001B000E80EF11C6E0196E5C90ED11C5E018AE5C0
:1001C000A80EB11C86E1882E81E0982E03C024354C
:1001D00008F020E06F962FAF6F975ADF1C01FAD01E
:1001E0006F962FAD6F97892B29F49AE02916310469
:1001F00071F705C08AE02816310409F095C0222362
:1002000049F3E1E0F0E0EC0FFD1FE20FF11D108279
:100210008FE091E0E5D0AC016FE071E0CE01019696
:10022000E8D0892B61F5CE0101966ADF892B89F22E
:1002300082E0DE011196FD01119690819C32D9F782
:10024000DF0111968150B9F78C91863511F25F92DA
:100250004F927F926F921F930F93FF92EF92DF92D4
:10026000CF92BF92AF929F928F923396FF93EF936C
:10027000D6D00FB6F894DEBF0FBECDBFAACF88E2AE
:1002800091E0AED0AC0168E271E0CE010196B1D050
:10029000892BA1F4CE01019633DF892B09F499CF84
:1002A00027E0CE010196FC01019630813C32D9F75E
:1002B000CF010196215009F48CCFF5CF8FE291E068
:1002C0008FD0AC016FE271E0CE01019692D0892B04
:1002D000D9F4CE01019614DF892B09F47ACF23E0FB
:1002E000CE010196FC01019630813C32D9F7CF0155
:1002F00001962150B9F746D090910E01981709F454
:1003000068CF80930E0165CF86E391E069D0AC01A0
:1003100066E371E0CE0101966CD0892B09F059CFCC
:10032000CE010196EDDE55CFE1E0F0E0EC0FFD1FD0
:10033000E20FF11D20822F5F4ACF1F920F920FB65E
:100340000F9211248F939F93AF93BF93EF93FF93DB
:10035000EFE7F1E0A081B0E08091C600A15CBE4F64
:100360008C93808190E001968F7399278083FF9111
:10037000EF91BF91AF919F918F910F900FBE0F9012
:100380001F901895FC0188279927E8942191203225
:10039000E9F3293010F02E30C8F32B3239F02D322A
:1003A00031F4689403C033D0820F911D2191205302
:1003B0002A30C8F31EF4909581959F4F089585FDCE
:1003C00005C38062911102C381568A51E0F70895F6
:1003D000803209F09111FAC280528F55E0F70895EA
:1003E000FC0101900020E9F7809590958E0F9F1FEA
:1003F0000895FB01DC014150504030F08D91019097
:10040000801919F40020B9F7881B990B08957AE038
:10041000979F902D879F802D910D11240895A0E125
:10042000B0E0E4E1F2E053C385E08C838D899E89DE
:100430009A838983AE01475E5F4F588B4F876F89E0
:10044000788DCE010196A2D16096E2E05CC320FDDA
:1004500009C0FC0123FD05C022FF02C07383628333
:10046000518340830895CF92DF92EF92FF920F93D2
:100470001F9344FD10C046FD10C0DB01FC01AA0F14
:10048000BB1FEE1FFF1F1094D1F76A0F7B1F8E1F3B
:100490009F1F31E003C033E001C034E0660F771FD7
:1004A000881F991F3150D1F76B017C01C20ED11CFE
:1004B000E11CF11C97018601B601C9011F910F9142
:1004C000FF90EF90DF90CF9008950F931F93CF93FD
:1004D000DF938C01C80190D2EC0197FD06C079D260
:1004E000892BC1F7B801CE01C7D2CE01DF91CF91E0
:1004F0001F910F9108958F929F92AF92CF92DF92AA
:10050000EF92FF920F931F93CF93DF93EC01A62EF0
:100510004A01022F71D2FC01FF27EB32F10519F0DD
:10052000BD9749F40068AA9411F480E05BC0CE0145
:1005300063D297FDFACF102F1D7F302F3073C9F48F
:100540008033B9F4AA94D9F1CE0156D297FD37C0C1
:10055000883711F0883541F41264AA9481F1CE01F4
:100560004BD297FF06C02BC006FF02C0126001C02D
:100570001261C12CD12C7601282F2053283078F01D
:1005800014FF03C0BE0178D217C02A3040F016FF16
:10059000F9CF2F7D322F31513630A0F72750412F20
:1005A000C701B60160DF6B017C011260AA9451F0B3
:1005B000CE0122D297FFE0CF11FD04C0B6CFC12CEF
:1005C000D12C760117FF08C0F094E094D094C09429
:1005D000C11CD11CE11CF11C212FB701A601C401D3
:1005E00036DF81E0DF91CF911F910F91FF90EF9067
:1005F000DF90CF90AF909F908F9008956F927F92F1
:100600009F92AF92BF92CF92DF92EF92FF920F93A1
:100610001F93CF93DF93CDB7DEB7A1970FB6F894B2
:10062000DEBF0FBECDBF6C017A018901FE0131969C
:1006300080E2DF011D928A95E9F7D60113969C901E
:1006400020E030E0A12CA0E0B12CCF0141E050E04F
:10065000F80193FC759193FE71918F01711103C0A4
:1006600000E010E07EC07E3519F42115310559F106
:10067000EB2DF0E0E217F3073CF47D3569F17D32B4
:1006800019F4AA2319F103C0A11101C0A72EE72F65
:10069000E695E695E6953C016E0E711CF301A72FD9
:1006A000A7703A0102C0660C771CAA95E2F7D30145
:1006B000B081BA2BB0837A1559F07A1510F47F5FA8
:1006C000E6CF7150E4CFBB24B39403C0A1E001C0D6
:1006D000A0E02F5F3F4FBCCFAA2319F08E8180622C
:1006E0008E83B11003C0BB24B3940BC0FE013196BE
:1006F000CE018196208120952193E817F907D1F743
:10070000F2CFC60169A378D169A197FD23C0282F34
:10071000269526952695E1E0F0E0EC0FFD1FE20F0F
:10072000F11D208130E0AC014770552702C035959E
:1007300027954A95E2F720FD03C0B6019DD10AC076
:10074000E114F10419F0D7018D937D016150B12CB2
:10075000C1F602C0B11084CFE114F10411F0F70129
:100760001082C801A1960FB6F894DEBF0FBECDBFB0
:10077000DF91CF911F910F91FF90EF90DF90CF907D
:10078000BF90AF909F907F906F9008954F925F922F
:100790007F928F929F92AF92BF92CF92DF92EF9211
:1007A000FF920F931F93CF93DF931F92CDB7DEB7C6
:1007B0008C012B015A01FC0117821682812CE2C0A8
:1007C0008E2D90E006D1892B19F0C8017EDEDAC0AB
:1007D000F5E2EF120AC0F201F3FC3591F3FE31911C
:1007E0002F01353261F455E2E52EC80105D197FDA0
:1007F000D4C0E81609F4C6C0B8013ED1D0C03A3220
:1008000041F4F3FC3591F3FE31912F019924939437
:1008100001C0912C712C0FC0F2E09F2A672D70E06F
:1008200080E090E040E21FDE762EF201F3FC35918D
:10083000F3FE31912F01232F20532A3068F391FECC
:1008400003C0711003C0ABC077247A94383619F016
:100850003C3699F40AC0F201F3FC3591F3FE319174
:100860002F01383651F4F8E09F2A84E0982AF201EB
:10087000F3FC3591F3FE31912F01332309F48FC03E
:10088000632F70E084E390E03983ABD03981892B0A
:1008900009F485C090FC07C0F501E080F18082E09A
:1008A000A80EB11C02C0E12CF12C3E3649F4F8012F
:1008B0004681578160E070E0292DC701C8DD62C024
:1008C000333689F491FC02C077247394C80194D024
:1008D00097FD63C0E114F10419F0F70181937F01E2
:1008E0007A94A1F74DC03B3551F49201A701672DD1
:1008F000C80184DE2C01009709F042C03CC0C80149
:100900003983E3DD398197FD48C03F3641F128F452
:10091000343611F1393631F527C0333719F0353710
:1009200009F51AC0C80168D06C0197FD0FC051D0FD
:10093000892B21F0B801C6019FD008C0E114F10451
:1009400019F0F701C1927F017A9461F7E114F10483
:10095000B9F0F701108214C0F0E29F2A05C080E1CF
:10096000982A02C090E4992A292DA701672DC80171
:10097000C2DD811105C0F8018381807371F40FC05D
:1009800090FE8394F801F380F201F3FCE590F3FE0E
:10099000E1902F01E11014CF02C0882019F0282D1A
:1009A00030E002C02FEF3FEFC9010F90DF91CF91F0
:1009B0001F910F91FF90EF90DF90CF90BF90AF907D
:1009C0009F908F907F905F904F90089599278827F0
:1009D00008959111FBCF803219F089508550D0F7DE
:1009E0000895FC010590061621F00020D9F7C001FA
:1009F00008953197CF010895CF93DF93EC013B81A8
:100A000030FF34C036FF0AC03F7B3B838E819F811D
:100A100001969F838E832A8130E02AC032FF0FC067
:100A2000E881F9818081992787FD9095009719F4D5
:100A300030623B831BC03196F983E8830EC0EA85A0
:100A4000FB85099597FF09C02B81019611F480E180
:100A500001C080E2822B8B8309C02E813F812F5FF2
:100A60003F4F3F832E839C01332702C02FEF3FEF80
:100A7000C901DF91CF910895FB01238120FF13C0AD
:100A800026FD11C08F3F3FEF930769F082832F7DD2
:100A900020642383268137812150310937832683BF
:100AA0009C01332702C02FEF3FEFC90108952F9219
:100AB0003F924F925F926F927F928F929F92AF92EE
:100AC000BF92CF92DF92EF92FF920F931F93CF933B
:100AD000DF93CDB7DEB7CA1BDB0B0FB6F894DEBFD2
:100AE0000FBECDBF09942A88398848885F846E84F8
:100AF0007D848C849B84AA84B984C884DF80EE8042
:100B0000FD800C811B81AA81B981CE0FD11D0FB64A
:100B1000F894DEBF0FBECDBFED010895F894FFCF6E
:100B200000000003000000003C0048000000FF241B
:100B30004750524D430025642E25752C25632C25E6
:100B4000642E25752C2563002447505654470024F5
:0E0B50004750475356002447505A4441000076
:00000001FF
