:1000000033C000004DC000005CC5000049C00000C6
:1000100047C0000045C0000043C0000041C00000D0
:100020003FC000003DC000003BC0000039C00000E0
:1000300037C0000035C0000033C0000031C00000F0
:100040002FC000002DC000000C947D0A29C00000C4
:1000500027C0000025C0000023C0000021C0000010
:100060001FC000001DC0000011241FBECFEFD8E04C
:10007000DEBFCDBF12E0A0E0B1E0E6EFFBE102C0E1
:1000800005900D92A23EB107D9F713E0A2EEB2E0BF
:1000900001C01D92A236B107E1F771D50C94F90D9C
:1000A000AFCF3D9A459A08950F931F93E0915A035D
:1000B000F0915B039C0122503109468157814250E7
:1000C00051092417350778F4A281B0E00E94A20AF2
:1000D0008B019C0180899189A289B389080F191F1E
:1000E0002A1F3B1F03C000E010E09801B801C901BE
:1000F0001F910F910895CF93DF93EC01E0915A0384
:10010000F0915B03198218828C819D818130910569
:10011000A9F0268137818217930780F49F838E830D
:10012000009711F0C1DF04C06485758586859785C9
:10013000688779878A879B8780E001C081E0DF91AB
:10014000CF9108958EBD0DB407FEFDCF8EB50895F5
:100150001F93CF93DF9300D0CDB7DEB7182F2A9827
:1001600085E04A836983EEDF812FECDF6981862F8A
:10017000E9DF4A81842FE6DF2A9A0F900F90DF9102
:10018000CF911F9108951F93CF93DF931F92CDB707
:10019000DEB7182F2A9882E06983D4DF812FD2DF5F
:1001A0006981862FCFDF2A9A0F90DF91CF911F911F
:1001B00008958FEFC7CFFF920F931F93CF93DF93D5
:1001C000C82FD42F152F062FF72E87FF08C040E029
:1001D00050E0BA0187E7EFDF8230E8F4CF77459A45
:1001E00045988C2FAFDF8F2DADDF802FABDF812FB8
:1001F000A9DF8D2FA7DFC03421F0C83421F081E0C2
:1002000003C085E901C087E89DDFCAE0D2DF87FF30
:1002100002C0C150D9F7DF91CF911F910F91FF908C
:100220000895CF92DF92EF92FF920F931F93CF9397
:10023000DF937C01E90129E0440F551F661F771FFA
:100240002A95D1F781E5B7DF882311F0C1E027C0F7
:1002500090E4C92E9CE9D92EACDF8F3F29F481E0D0
:10026000C81AD108C9F7F2CF8E3F81F782E0C82EB5
:10027000DC2CCC1ADD0AC01AD10A209719F099DFBC
:100280002197FBCF96DFF70181937F010150110980
:10029000C9F78FDFF1E0CF1AD108D9F7C0E0459A4E
:1002A00088DF8C2FDF91CF911F910F91FF90EF90FE
:1002B000DF90CF9008950F931F93CF93DF9300D0DB
:1002C00000D0CDB7DEB7E0915A03F0915B038230E6
:1002D000910508F420C02681378182179307D8F44E
:1002E00020812230C1F49C013327220F331F892F34
:1002F00099274085518562857385480F591F611D77
:10030000711D02E010E0CE0101968BDF811103C068
:1003100029813A8102C021E030E0C9010F900F909D
:100320000F900F90DF91CF911F910F910895EF9251
:10033000FF920F931F93CF93DF93EC01E0905A034A
:10034000F0905B03088119810F5F1F4F11F483E068
:1003500045C0488559856A857B85411551056105EC
:100360007105A9F3C8018F709927892B91F54F5F0B
:100370005F4F6F4F7F4F488759876A877B878E8192
:100380009F81F701009731F484819581081719073F
:10039000F0F61FC0228130E021503109A80164E04D
:1003A000569547956A95E1F724233523232B89F445
:1003B00082DF8230910588F0F7012681378182172C
:1003C000930728F69F838E836FDE688779878A87F5
:1003D0009B871983088380E001C081E0DF91CF9182
:1003E0001F910F91FF90EF900895CF92DF92EF92BF
:1003F000FF920F931F93CF93DF93EC016A017B0170
:1004000002E010E02EEF31E00CDF811117C088818F
:10041000998185359A4AA1F426E330E0B701A60117
:10042000CE01FFDE811108C081E0288139812634A8
:10043000314439F480E005C081E003C083E001C0AD
:1004400082E0DF91CF911F910F91FF90EF90DF90AD
:10045000CF9008954F925F926F927F928F929F926A
:10046000AF92BF92CF92DF92EF92FF920F931F93C2
:10047000CF93DF93CDB7DEB7A4970FB6F894DEBF66
:100480000FBECDBF40E050E0BA01CE010196ADDF16
:100490008130E9F400E110E02EEB31E040E050E083
:1004A000BA01CE010196BDDE882311F081E0AEC015
:1004B0008D81811102C087E0A9C089849A84AB84B0
:1004C000BC84B501A401CE0101968FDF03C0812C4D
:1004D000912C5401833051F38111EDCF04E210E0EF
:1004E0002DE030E0B501A401CE0101969ADE811124
:1004F000DDCF2A853B8540E050E0211531054105DF
:10050000510521F4288D398D4A8D5B8DAC81B0E089
:100510000E94AE0A2B013C012A813B81890120E027
:1005200030E0800E911EA21EB31E80923E03909278
:100530003F03A0924003B0924103E981E093380366
:10054000CD80DE80D0923B03C0923A036F817885E4
:10055000CB01A0E0B0E00097A105B10521F48C89A2
:100560009D89AE89BF8974E0D694C7947A95E1F7E6
:10057000E12CF12CBC01CD01601B710B820B930BA4
:1005800064197509860997096C197D098E099F09F7
:100590002E2F30E040E050E0EBD72E5F3F4F4F4F23
:1005A0005F4F30933D0320933C03273F8FE0380794
:1005B0004105510508F47FCF273F3F4F41055105C5
:1005C00008F079CF82E080933603840C951CA61C3A
:1005D000B71C8092420390924303A0924403B092CE
:1005E00045038C0C9D1CAE1CBF1C80924603909250
:1005F0004703A0924803B09249031092370386E361
:1006000093E090935B0380935A0380E0A4960FB627
:10061000F894DEBF0FBECDBFDF91CF911F910F9138
:10062000FF90EF90DF90CF90BF90AF909F908F9012
:100630007F906F905F904F900895CF93DF93CFEFAF
:10064000DAE0B7DDD150E9F740E050E0BA0180E4EC
:10065000B2DDC15011F481E019C0813089F7A9DD04
:10066000CFEF40E050E0BA0181E4A5DDC15099F33D
:100670008111F7CF40E050E0BA018BE79CDD40E00C
:1006800052E060E070E080E596DD80E0DF91CF91A0
:100690000895CF93C82F2A9883E054DD8C2F52DD24
:1006A00088DD2A9ACF91089501C08DE09091C00015
:1006B00095FFFCCF8093C6008A30B9F390E008958F
:1006C000CF93DF93909125038091E2029817D1F3A5
:1006D000E091E202F0E0EB51FD4FC081D0E080916B
:1006E000E20290E001968F7399278093E202CD3069
:1006F000D10511F4CAE0D0E08C2FD6DFCE01DF9116
:10070000CF9108951F93CF93DF93C82F2A9883E04A
:1007100019DD8C2F17DD4DDD809327034ADD809393
:10072000280380912803829581708093290380910A
:10073000280390912803807E8695869586959370F0
:10074000892B8093280335DD34DD33DD8F70809372
:100750002A0380912A03893050F08EE091E09F9324
:100760008F935FD788E080932A030F900F9010E05B
:1007700005C01FDDC95DDC4F8C831F5F80912A039C
:10078000C12FD0E01817A8F3C95DDC4F1C822A9A4C
:10079000809127038A3041F480912803873021F427
:1007A00081E08093E40243C080912703893041F4C3
:1007B00080912803873021F481E08093E30237C0E1
:1007C00020912A0390912803809127031F922F9351
:1007D0001F929F931F928F938EE191E09F938F932F
:1007E00020D78DB79EB708960FB6F8949EBF0FBE60
:1007F0008DBF10E0CDE3D1E00FC0E12FF0E0E95D67
:10080000FC4F84811F928F93DF93CF930AD71F5F92
:100810000F900F900F900F9080912A03181768F394
:100820008CE191E09F938F93FCD60F900F9081E025
:1008300080933403DF91CF911F910895EF92FF923F
:100840000F931F93CF93DF9300D0CDB7DEB7F82E71
:10085000142F022F80913503882349F081E491E021
:100860009F938F93DED60F900F9081E033C0F89462
:100870002A9880E43A83698365DC8F2D63DC698183
:10088000E62FEC7128E0E29FC001112463706860DC
:10089000862B58DC80E056DC80E054DC812F52DC73
:1008A000E02E3A81F32E04C0F70181917F014ADCEA
:1008B0008E2D801B8117C0F32A9A81E08093350327
:1008C00040E064E08CE244DC2A9881E83BDC2A9A30
:1008D000789480E00F900F90DF91CF911F910F914E
:1008E000FF90EF9008951092E4021092E302A6DFC9
:1008F0004FEF28EC30E007C080E991E0F901319733
:10090000F1F70197D9F78091E402811107C0809136
:10091000E302811103C0415079F702C0411109C0BF
:100920008DE491E09F938F937CD60F900F9081E0A0
:1009300008958091E302882311F082E0089580E019
:1009400008958F929F92BF92CF92DF92EF92FF9283
:100950000F931F93CF93DF931F92CDB7DEB74C0158
:100960006B01CA017C01DC012C9101962032D1F38C
:100970002F3209F47C01F40115821482D7018C9185
:10098000813230F4C401B7DB282FF60110828BC00E
:10099000D40112960D911C9113974BE050E060E248
:1009A00070E0C8012ED690E020E038E0F701E20FB9
:1009B000F11D80812F5F813290F08F3281F08E3275
:1009C00009F464C0931758F4482F41564A3108F48B
:1009D0008052F801E90FF11D80839F5FE7CFE20E9F
:1009E000F11C91E0813208F090E0F8019387C40196
:1009F00082DB282F811150C0D4012D913C91119799
:100A00002F703327E5E0220F331FEA95E1F71896A0
:100A10004D915D916D917C911B9700E210E0C601B4
:100A200000DC81112FC020E0F60180818823A1F035
:100A3000B384B3FC0EC0D40112960D911C91139790
:100A40004BE050E0B801C6012983B4D520E0892BE2
:100A500031F1C4016CDCCDCFD4011296ED91FC9143
:100A600013978385882381F00BC0B4FE0DC0F60177
:100A7000828D938DD40115969C938E93149788CF75
:100A800023E011C021E00FC024E00DC0383009F090
:100A9000A6CF98E03BE08ACF833029F4DDCFF80180
:100AA0008385882311F3822F0F90DF91CF911F91BF
:100AB0000F91FF90EF90DF90CF90BF909F908F901D
:100AC00008951F920F920FB60F9211242F933F9308
:100AD0004F935F936F937F938F939F93AF93BF9346
:100AE000CF93EF93FF938CE2D4DDC82F1F928F93A7
:100AF00022E731E03F932F9394D50F900F900F9002
:100B00000F90C0FF07C081E6FDDD40E061E08CE2B0
:100B10001FDBCE7FC1FF07C081E7F4DD40E062E06C
:100B20008CE216DBCD7FC2FF07C01092350340E098
:100B300064E08CE20DDBCB7FCC2379F01F92CF9366
:100B40008AE791E09F938F936CD540E06FEF8CE242
:100B5000FFDA0F900F900F900F90FF91EF91CF91D0
:100B6000BF91AF919F918F917F916F915F914F91C5
:100B70003F912F910F900FBE0F901F901895CF931C
:100B8000DF93CDB7DEB7CE5AD1090FB6F894DEBFEA
:100B90000FBECDBF1092C5008CE08093C40088E9E1
:100BA0008093C10080E091E090935F0380935E03A7
:100BB00090935D0380935C03789484B18C6284B9D4
:100BC000249880E58CBD8CB58C7F8CBD8DB5816003
:100BD0008DBD67DA80ED97E028EC30E0F9013197C0
:100BE000F1F70197D9F78CE891E09F938F9319D58E
:100BF0000F900F9050E4952E69E0862E78E0772EC6
:100C0000E0E2CE2EEEE4DE2E0AE911E0F2E9EF2E6C
:100C1000F1E0FF2EA8ECAA2EB12C0CC0FF92EF92AF
:100C200000D50F900F9088E893E1F5013197F1F727
:100C30000197D9F7219A10928500109284001092A2
:100C400089001092880090928000809281007092BA
:100C50006900E99A229A2A9A2A9880EC73DA2A9AE9
:100C6000C6010197F1F740E860EE8FE071DA8EE09F
:100C700010DD807E803891F661E08AE284DA6AE9EC
:100C800089E281DA61E088E27EDA6FE78BE27BDA83
:100C900060E680E678DA40E06FEF8FE059DA4AE00C
:100CA000642E8EE0F6DC807E19F06A94D1F702C0E3
:100CB00061100CC08EE0EDDC1F928F931F930F9399
:100CC000B0D40F900F900F900F90A8CF10923503D3
:100CD0001092260331E6C32ED12CCC0EDD1E29E066
:100CE000C20ED11C81E490E08C0F9D1F0896C55563
:100CF000DF4F99838883CB5AD040E4E8F0E0EC0FD3
:100D0000FD1F3596C355DF4FF983E883CD5AD04098
:100D100083EB91E09F938F9384D41092340386EBFE
:100D200091E09F938F937DD40F900F900F900F9031
:100D300020E23EE403C0C9010197F1F7809134033A
:100D40008823C9F38BEC91E09F938F936AD48DE055
:100D5000E7E2F3E0DE01A958BF4F01900D928A95BA
:100D6000E1F78DE0FE01E958FF4FDE01AC57BF4FC0
:100D700001900D928A95E1F7CC57DF4F8881C458D6
:100D8000D0400F900F908D3021F08F3009F077C355
:100D900011C287D952DCC755DF4F8883C95AD0406A
:100DA0001F928F938DED91E09F938F933AD4109281
:100DB0005B0310925A030F900F900F900F903DDC41
:100DC00080FD02C047DB01C082E0C755DF4F88834A
:100DD000C95AD0401F928F9387EE91E09F938F93D3
:100DE00020D4C857DF4F8880C858D0400F900F904C
:100DF0000F900F9080915A0390915B03892B29F1FA
:100E000081E490E08C0F9D1FC156DF4F998388834A
:100E1000CF59D0404DE151E0BE016F5F7F4FCE0111
:100E200083569F4F8EDD811110C08981882309F47C
:100E300032C38C8584FF09C08B8D9C8DCF55DF4FCD
:100E400099838883C15AD04026C3912C5E0191E9D1
:100E5000A90EB11C9EE2792EEE24E394F12CEC0E47
:100E6000FD1E80915A0390915B03892B09F4C1C048
:100E7000C156DF4FB982A882CF59D04083E02AC043
:100E8000C356DF4F28813981CD59D0402F70332789
:100E900085E0220F331F8A95E1F700E210E0CE01D2
:100EA0008F5B9F4FBED98111FCC222968FAD2297D6
:100EB000882309F4F8C22D969FAD2D97853E21F029
:100EC0008E3211F093FF21C0CE0183569F4F2FDA4F
:100ED00081110FC0CB55DF4F488159816A817B81D9
:100EE000C55AD040411551056105710549F6882361
:100EF00061F0CB55DF4F188219821A821B82C55AC6
:100F0000D040833011F0811176C0CB55DF4F8881FE
:100F10009981AA81BB81C55AD040892B8A2B8B2B02
:100F200009F455C0DE01AF5BBF4FF6019F018D9103
:100F3000803271F0853009F485EE81939F01C555AB
:100F4000DF4F88819981CB5AD040A817B90771F734
:100F50002A968FAD2A978032B9F0708281839F01E3
:100F60002E5F3F4F2B968FAD2B97803269F0828397
:100F70009F012D5F3F4F2C968FAD2C97803221F033
:100F800083839F012C5F3F4F2D968FAD2D97AA969F
:100F90008FAFAA97A1968CAD9DADAEADBFADA19719
:100FA000A5968CAF9DAFAEAFBFAFA5976B968EAD3C
:100FB0009FAD6B97A7969FAF8EAFA79769968EADA3
:100FC0009FAD6997A9969FAF8EAFA99701C0960173
:100FD000F9011082CE0183569F4FA9D9833059F46D
:100FE000CB55DF4F188219821A821B82C55AD04016
:100FF00009C086E002C0882329F01F928F938FEEEC
:1010000091E096C0AB968FADAB97882309F470C082
:10101000C601FED2AC01B601C701890D911DD7D220
:10102000C601F6D2980EDF92CF928CEF91E09F939B
:101030008F93F7D2AA968FADAA970F900F900F902B
:101040000F90492D50E084FF0EC0F701E40FF51F0B
:101050008FE28083939426E032E03F932F93E1D296
:101060000F900F9038C0A5968FADA5978F93A4963B
:101070008FADA4978F93A3968FADA3978F93A296CE
:101080008FADA2978F9308E012E01F930F9320E497
:1010900030E0241B350B3F932F934E0D5F1D5F9364
:1010A0004F93D3D2980EA5968FADA5978F93A49604
:1010B0008FADA4978F93A3968FADA3978F93A2968E
:1010C0008FADA2978F931F930F93ABD20FB6F89467
:1010D000DEBF0FBECDBFF701E90DF11D8AE08083B1
:1010E0009394E2DA97E0991508F0BBCE612C02C028
:1010F00066246394F701E90DF11D1082FF92EF92CF
:101100008FE092E09F938F938CD20F900F900F906F
:101110000F90992059F1870117C0980148E0682D78
:101120008EE0E1DB882361F01F928F9383E292E0EF
:101130009F938F9376D20F900F900F900F902DC0AA
:10114000085F1F4FE8EF9E0EF7E0F91530F386E3D6
:1011500092E09F938F9365D2492D50E0B801C7016B
:101160003FD20F900F90662009F47BCE84E492E08A
:101170009F938F9356D29E012F5F3F4F492D682D2D
:101180008EE0B1DB0F900F90882349F088E592E064
:101190009F938F9346D20F900F9081E001C080E023
:1011A000C755DF4F8883C95AD0401F928F9389E675
:1011B00092E043C10E94510040DAC755DF4F888357
:1011C000C95AD0401F928F938DED91E09F938F93DA
:1011D00028D210925B0310925A030F900F900F9039
:1011E0000F902BDA80FD02C035D901C082E0C755CF
:1011F000DF4F8883C95AD0401F928F9387EE91E0CA
:101200009F938F930ED2C857DF4F2881C858D04084
:10121000C655DF4F2883CA5AD040E0905A03F09059
:101220005B030F900F900F900F90E114F104B9F150
:10123000F701118281E490E08C0F9D1FCD56DF4FA6
:1012400099838883C359D040C355DF4F4881598162
:10125000CD5AD0408E010F5F1F4FB801CE018F567F
:101260009F4F6FDB81111EC089818823D1F08C854F
:1012700084FD17C08B8D9C8DF701958F848F8D8D8C
:101280009E8DAF8DB8A1808F918FA28FB38F148A5E
:10129000158A168A178A81E08183180110C086E0BA
:1012A00001C083E01F928F9382E892E09F938F9317
:1012B000B8D10F900F900F900F9081E0B5C0E090E3
:1012C0005A03F0905B03E114F10409F4EEC0F70156
:1012D000818180FFECC0808C918CA28CB38C84893E
:1012E0009589A689B789881A990AAA0ABB0AF8E0DB
:1012F0008F169104A104B10418F008E0802E912CFF
:10130000A12CB12C210174C0F70184899589A6898B
:10131000B789AC01BD01517066277727452B462B55
:10132000472BB1F5AC01BD0119E07695679557954E
:1013300047951A95D1F772807A94742299F4892B83
:101340008A2B8B2B19F4848D958D05C0F701868D22
:10135000978D0E945B018230910508F44EC0F70121
:10136000978F868FF701868D978D0E9454006115A7
:1013700071058105910509F440C0DC01CB01870DA1
:10138000911DA11DB11DF70180A391A3A2A3B3A339
:10139000F70184899589A689B7899170AA27BB2707
:1013A00020E032E0281B390B34012815390508F4F8
:1013B0003901F70140A151A162A173A183019C01F0
:1013C000C2010E941101811118C0F7018489958919
:1013D000A689B789860D971DA11DB11D848B958B9C
:1013E000A68BB78B460C571C86189708A60CB71C03
:1013F0008114910409F088CF68C0F701118281E05F
:1014000057C01F928F9383E292E09F938F9309D1ED
:101410000F900F900F900F9083E006C0F8E0AF168A
:10142000B10408F04CCF80E0C755DF4F8883C95A1C
:10143000D0401F928F9385E992E09F938F93F1D0D4
:101440000F900F900F900F90C755DF4F8881C95AAA
:10145000D040882309F45CCC9E0127553F4F41E0E2
:10146000C857DF4F6881C858D04081E1E7D981E78C
:1014700092E09F938F93D5D00F900F9049CC1F92FD
:101480008F938EE992E09F938F93CBD00F900F9024
:101490000F900F903DCCCE0183569F4F0E947B0052
:1014A000D4CC81E026CD83E024CD86E001C085E068
:1014B0001F928F938BEB92E09F938F93B2D00F90FC
:1014C0000F900F900F9082E0AFCFBF92AF928EEC53
:1014D00092E09F938F93A5D091014A2DC655DF4F7F
:1014E0006881CA5AD04080E1FED90F900F900F90CA
:1014F0000F90882309F492CF84CF1F920F920FB6DA
:101500000F9211248F939F93AF93BF93EF93FF9309
:10151000E5E2F3E0A081B0E08091C600AB51BD4FA1
:101520008C93808190E001968F7399278083FF913F
:10153000EF91BF91AF919F918F910F900FBE0F9040
:101540001F901895A29FB001B39FC001A39F01D027
:10155000B29F700D811D1124911D0895F3DFA59F89
:10156000900DB49F900DA49F800D911D112408959E
:10157000A1E21A2EAA1BBB1BFD010DC0AA1FBB1F97
:10158000EE1FFF1FA217B307E407F50720F0A21B09
:10159000B30BE40BF50B661F771F881F991F1A9476
:1015A00069F760957095809590959B01AC01BD01A0
:1015B000CF010895FB01DC0104C08D9101908019D9
:1015C00021F441505040C8F7881B990B0895FB0146
:1015D000DC0102C001900D9241505040D8F70895AF
:1015E0006817790768F4FB01DC01E40FF51FA40F0D
:1015F000B51F02C002900E9241505040D8F7089596
:10160000E6CFDC0101C06D9341505040E0F70895F2
:10161000FC0101900020E9F7809590958E0F9F1FA7
:101620000895A2E0B0E0E6E1FBE0BCC2FE0137961F
:1016300061917191FA83E983AF0180915E0390918A
:101640005F0332D02296E2E0C9C2A0E1B0E0EAE254
:10165000FBE0A6C20F89188D898D9A8D26E02C8318
:101660001A83098397FF02C080E090E801979E8368
:101670008D83AE01435E5F4F588B4F876B8D7C8DA2
:10168000CE01019611D04D815E8157FD0AC02F8198
:101690003885421753070CF49A01F801E20FF31F43
:1016A00010826096E4E098C2ACE0B0E0E9E5FBE0CF
:1016B00069C27C016B018A01FC0117821682838159
:1016C00081FFBAC188248394912C8C0E9D1EF70152
:1016D0009381F60193FD859193FF81916F0188239A
:1016E00009F4A6C1853239F493FD859193FF819168
:1016F0006F01853221F4B70190E0BAD1E8CF712CA7
:10170000312C20E02032A8F48B3261F028F48032B2
:1017100051F0833271F40BC08D3239F0803349F4CB
:10172000216028C02260246025C0286023C0206179
:1017300021C027FD27C0382F30533A3078F426FFD8
:1017400006C0FAE07F9E300D1124732E13C08AE08C
:10175000389E300D1124332E20620CC08E3221F4BD
:1017600026FD66C1206406C08C3611F4206802C0D4
:10177000883641F4F60193FD859193FF81916F01C5
:101780008111C0CF982F9554933018F09052933018
:1017900028F40C5F1F4FFFE3F9830DC0833631F04F
:1017A000833771F0833509F05AC022C0F801808177
:1017B00089830E5F1F4F66246394712C540114C0FB
:1017C0002801F2E04F0E511CF801A080B18026FFE5
:1017D00003C0672D70E002C06FEF7FEFC5012C875B
:1017E0003CD13C0182012C856FE7262E222217C0B6
:1017F0002801F2E04F0E511CF801A080B18026FFB5
:1018000003C0672D70E002C06FEF7FEFC5012C872A
:1018100019D13C012C8550E8252E222A820123FC77
:101820001AC005C0B70180E290E022D13A94832D1E
:1018300090E068167906B0F30EC0F50127FC85919B
:1018400027FE81915F01B70190E012D131103A94E7
:10185000F1E06F1A71086114710479F7E6C08436FB
:1018600011F0893639F5F80127FF07C060817181D1
:10187000828193810C5F1F4F08C06081718188272E
:1018800077FD8095982F0E5F1F4F4FE6642E6222E2
:1018900097FF09C090958095709561957F4F8F4F08
:1018A0009F4FF0E86F2A2AE030E0A4010DD1A82E66
:1018B000A81843C0853731F43FEEB32EB2222AE098
:1018C00030E024C099EFB92EB2228F36B9F020F45F
:1018D000883509F0ADC00DC0803721F0883709F098
:1018E000A7C002C020E1B22AB4FE0BC084E0B82A2F
:1018F00008C024FF09C0E6E0BE2A06C028E030E0A8
:1019000005C020E130E002C020E132E0F801B7FE7E
:1019100007C060817181828193810C5F1F4F06C077
:101920006081718180E090E00E5F1F4FA401CCD0F8
:10193000A82EA8188FE7682E6B2066FE0BC0362DE8
:101940003E7FA71450F464FE0AC062FC08C0362D26
:101950003E7E05C0BA2C362D03C0BA2C01C0B72C70
:1019600034FF0DC0FE01EA0DF11D8081803311F4BA
:10197000397E09C032FF06C0B394B39404C0832FEC
:10198000867809F0B39433FD13C030FF0EC07A2C73
:10199000B31458F4730C7B18B32C07C0B70180E262
:1019A00090E03C8765D0B3943C85B314B8F304C091
:1019B000B31410F43B1801C0312C34FF11C0B7012F
:1019C00080E390E03C8754D03C8532FF1CC031FF5F
:1019D00003C088E590E002C088E790E0B7010CC042
:1019E000832F867881F031FD02C080E201C08BE256
:1019F00037FD8DE2B70190E03BD005C0B70180E331
:101A000090E036D07A94A714C8F3AA94F401EA0DB2
:101A1000F11DB701808190E02BD0A110F6CF05C059
:101A2000B70180E290E024D03A943110F9CF4FCE44
:101A3000F7012681378102C02FEF3FEFC9012C96B5
:101A4000E2E1BCC0FC010590615070400110D8F784
:101A5000809590958E0F9F1F0895FC0161507040F6
:101A600001900110D8F7809590958E0F9F1F0895D3
:101A70000F931F93CF93DF938C01EB018B8181FD3B
:101A800003C00FEF1FEF1AC082FF0DC02E813F81F0
:101A90008C819D812817390764F4E881F9810193CD
:101AA000F983E88306C0E885F985802F0995892B9D
:101AB00041F78E819F8101969F838E83C801DF91BC
:101AC000CF911F910F910895FA01AA27283051F163
:101AD000203181F1E8946F936E7F6E5F7F4F8F4F5F
:101AE0009F4FAF4FB1E03ED0B4E03CD0670F781FBE
:101AF000891F9A1FA11D680F791F8A1F911DA11DA3
:101B00006A0F711D811D911DA11D20D009F46894DB
:101B10003F912AE0269F11243019305D3193DEF683
:101B2000CF010895462F4770405D4193B3E00FD039
:101B3000C9F7F6CF462F4F70405D4A3318F0495D24
:101B400031FD4052419302D0A9F7EACFB4E0A69507
:101B50009795879577956795BA95C9F70097610529
:101B6000710508959B01AC010A2E0694579547957F
:101B700037952795BA95C9F7620F731F841F951F74
:101B8000A01D08952F923F924F925F926F927F9285
:101B90008F929F92AF92BF92CF92DF92EF92FF927D
:101BA0000F931F93CF93DF93CDB7DEB7CA1BDB0B29
:101BB0000FB6F894DEBF0FBECDBF09942A883988CE
:101BC00048885F846E847D848C849B84AA84B984D5
:101BD000C884DF80EE80FD800C811B81AA81B981E1
:101BE000CE0FD11D0FB6F894DEBF0FBECDBFED01F5
:061BF0000895F894FFCFF8
:101BF6000000000300000000540360030000696E4B
:101C0600636F7272656374206C656E210A005344BB
:101C1600206E6F6465207265636569766564205B16
:101C260025782025785D202564623A200025782CC9
:101C3600007478206F76657272756E0A0062656749
:101C4600696E5F786665723A2074696D656F757442
:101C56002077616974696E6720666F72206374739A
:101C66000A00696E742025780A004552524F5220A8
:101C760063616E696E74662025780A00696E697400
:101C86000A006D63703A20310A0063616E737461F5
:101C960074206E6F7420636F72726563743A2025C8
:101CA600780A003E20006765745F7061636B657437
:101CB6003A206C6F6F70696E670A006765745F70B3
:101CC60061636B65743A20646F6E650A00646973BC
:101CD6006B3A2025640A0066733A2025640A00726E
:101CE6006561646469723A2025640A0066696C65F8
:101CF6003A2025730A002F00205B256C645D006482
:101D06006F6E652066696C6C696E673A202725736D
:101D1600270A00786665723A206661696C656420F8
:101D2600282564290A00646F6E652073656E6469F0
:101D36006E670A0073656E64696E67206C61737402
:101D4600206368756E6B0A00786665723A2074695E
:101D56006D6564206F75740A006C733A2025640AF9
:101D66000073656E642046494C455F4552524F529A
:101D76000A0070665F6F70656E206572726F723AE8
:101D86002025640A006361743A2025640A00756E92
:101D96006B6E6F776E2043414E206D65737361677E
:101DA6006520747970652025780A0070665F726513
:101DB6006164206572726F723A2025640A0070664B
:101DC6005F726561643A2025642062797465730ADE
:021DD60000000B
:00000001FF
