:1000000033C000004CC000006FC1000048C00000B9
:1000100046C0000044C0000042C0000040C00000D4
:100020003EC000003CC000003AC0000038C00000E4
:1000300036C0000034C0000032C0000030C00000F4
:100040002EC000002CC000000AC3000028C0000021
:1000500026C0000024C0000022C0000020C0000014
:100060001EC000001CC0000011241FBECFEFD8E04E
:10007000DEBFCDBF11E0A0E0B1E0EEE3FDE002C0E5
:1000800005900D92AA3DB107D9F712E0AAEDB1E0B3
:1000900001C01D92A333B107E1F784D14EC6B0CFA2
:1000A0008EBD0DB407FEFDCF8EB508951F93CF937F
:1000B000DF9300D0CDB7DEB7182F2A9885E04A83AA
:1000C0006983EEDF812FECDF6981862FE9DF4A81CA
:1000D000842FE6DF2A9A0F900F90DF91CF911F9126
:1000E00008951F93CF93DF931F92CDB7DEB7182FDC
:1000F0002A9882E06983D4DF812FD2DF6981862F3D
:10010000CFDF2A9A0F90DF91CF911F9108958FEF43
:10011000C7CFCF93C82F2A9883E0C2DF8C2FC0DFD0
:10012000F6DF2A9ACF91089501C08DE09091C0002A
:1001300095FFFCCF8093C6008A30B9F390E0089514
:10014000CF93DF9390912A028091DA019817D1F32F
:10015000E091DA01F0E0E651FE4FC081D0E08091FD
:10016000DA0190E001968F7399278093DA01CD3000
:10017000D10511F4CAE0D0E08C2FD6DFCE01DF919B
:10018000CF9108951F93CF93DF93C82F2A9883E0D0
:1001900087DF8C2F85DFBBDF8093DD01B8DF8093A5
:1001A000DE018091DE01829581708093DF01809174
:1001B000DE019091DE01807E86958695869593700E
:1001C000892B8093DE01A3DFA2DFA1DF8F708093F4
:1001D000E0018091E001893050F08EE091E09F9342
:1001E0008F93AFD288E08093E0010F900F9010E0E2
:1001F00005C08DDFC352DE4F8C831F5F8091E0010D
:10020000C12FD0E01817A8F3C352DE4F1C822A9AE0
:100210008091DD011F928F938EE191E09F938F93E8
:1002200090D28091DD010F900F900F900F908A3047
:1002300041F48091DE01811104C081E08093DC01F2
:1002400037C02091E0019091DE018091DD011F9285
:100250002F931F929F931F928F9384E391E09F931C
:100260008F936FD28DB79EB708960FB6F8949EBF46
:100270000FBE8DBF10E0C3E5D1E00FC0E12FF0E06D
:10028000E352FE4F84811F928F93DF93CF9359D215
:100290001F5F0F900F900F900F908091E001181743
:1002A00068F38CE191E09F938F934BD20F900F9066
:1002B00081E08093DB01DF91CF911F910895CF936F
:1002C000C82F90E0F1D1892B19F08C2F87530AC0E9
:1002D0008C2F90E0ECD1892B19F08C2F875502C020
:1002E0008C2F8053CF9108951F920F920FB60F92CB
:1002F00011242F933F934F935F936F937F938F932B
:100300009F93AF93BF93CF93EF93FF938CE201DF63
:10031000C82F1F928F9327E531E03F932F9311D27F
:100320000F900F900F900F90C0FF07C081E62ADF5B
:1003300040E061E08CE2BADECE7FC1FF07C081E71A
:1003400021DF40E062E08CE2B1DECD7FC2FF07C07A
:1003500010922C0240E064E08CE2A8DECB7FCC233C
:1003600079F01F92CF938FE591E09F938F93E9D11E
:1003700040E06FEF8CE29ADE0F900F900F900F909D
:10038000FF91EF91CF91BF91AF919F918F917F910D
:100390006F915F914F913F912F910F900FBE0F90F2
:1003A0001F901895CF93DF93CDB7DEB7CA54D1090C
:1003B0000FB6F894DEBF0FBECDBF1092C5008CE023
:1003C0008093C40088E98093C10080E091E090931D
:1003D000300280932F0290932E0280932D02789406
:1003E00084B18C6284B9249880E58CBD8CB58C7FF7
:1003F0008CBD8DB581608DBD30E4932E49E0842E97
:1004000058E0752E60E2C62E6EE4D62E09E711E0A4
:1004100071E7E72E71E0F72EE8ECAE2EB12C0CC0A0
:10042000FF92EF928ED10F900F9088E893E1F50143
:100430003197F1F70197D9F7219A10928500109220
:10044000840010928900109288009092800080921F
:10045000810070926900E99A229A2A9A2A9880EC7F
:100460001FDE2A9AC6010197F1F740E860EE8FE09F
:100470001DDE8EE04EDE807E803891F661E08AE2FD
:1004800030DE6AE989E22DDE61E088E22ADE6FE78C
:100490008BE227DE60E680E624DE40E06FEF8FE04F
:1004A00005DE2AE0622E8EE034DE807E19F06A944A
:1004B000D1F702C061100CC08EE02BDE1F928F932B
:1004C0001F930F933ED10F900F900F900F90A8CFD6
:1004D00010922C0210922B0278947E0121E4E20EFD
:1004E000F11C8BEA482E81E0582E9FE9C92E91E03D
:1004F000D92E82E991E09F938F9323D140912D02D1
:1005000050912E0260E470E0CE010196EDD0CE0154
:100510000196D3D08C0F9D1FFC01108285E991E0DC
:10052000CCD08C01AC0165E971E0CE010196CED052
:100530000F900F90892B09F08AC021E030E02C0F3A
:100540003D1F020F131FF8018081B9DE882EF801CC
:100550008181B5DE982E8BE991E0AFD05C01080F68
:10056000191FF8018081ABDE682EF8018181A7DEBA
:10057000782E0A0D1B1D5701312C16C0A0DE282E27
:10058000F80181819CDEF0E12F9E800D1124F501A0
:1005900081935F013394F8018281882361F08BE9B4
:1005A00091E08BD0080F191FF8018081882319F082
:1005B000F8E03F12E3CF80912C02882339F0DF92DC
:1005C000CF92BFD00F900F9081E037C0172D20E160
:1005D000629E100D1124F8942A9880E461DD892D23
:1005E00030E1839E800D11245BDD212F2370286074
:1005F0001C71E8E01E9FC0011124822B51DD80E0B8
:100600004FDD80E04DDD832D4BDD870104C0F80117
:1006100081918F0145DD802F8E198315C0F32A9AB1
:10062000F1E0F0932C0240E064E08CE23FDD2A9898
:1006300081E836DD2A9A789480E01F928F935F924A
:100640004F927FD00F900F900F900F9052CF2DEBC5
:1006500031E03F932F9375D00F900F904ACF1F92A8
:100660000F920FB60F9211248F939F93AF93BF9366
:10067000EF93FF93EAE2F2E0A081B0E08091C60040
:10068000A651BE4F8C93808190E001968F7399277D
:100690008083FF91EF91BF91AF919F918F910F90C8
:1006A0000FBE0F901F90189585FD2DC2806291118D
:1006B0002AC281568A51E0F70895FC01019000207A
:1006C000E9F7809590958E0F9F1F0895FB01DC013F
:1006D0004150504030F08D910190801919F4002064
:1006E000B9F7881B990B0895A0E0B0E0E9E7F3E0C3
:1006F000F7C2EC016A01FA01838180FD03C0C0E00A
:10070000D0E01AC016161706D4F77B018E010EC072
:10071000C60112D28F3FFFEF9F0789F3F801819343
:100720008F01F1E0EF1AF1080A9721F021E0E216BB
:10073000F10471F7F8011082CE01CDB7DEB7E8E021
:10074000EBC2A2E0B0E0E6EAF3E0D0C2FE013796E9
:1007500061917191FA83E983AF0180912F029091A9
:10076000300203D02296E2E0DDC2ACE0B0E0EAEB7A
:10077000F3E0ACC27C016B018A01FC011782168296
:10078000838181FFBAC188248394912C8C0E9D1E95
:10079000F7019381F60193FD859193FF81916F019C
:1007A000882309F4A6C1853239F493FD859193FF1E
:1007B00081916F01853221F4B70190E0FDD1E8CF3E
:1007C000712C312C20E02032A8F48B3261F028F417
:1007D000803251F0833271F40BC08D3239F08033A6
:1007E00049F4216028C02260246025C0286023C00D
:1007F000206121C027FD27C0382F30533A3078F4CC
:1008000026FF06C0FAE07F9E300D1124732E13C020
:100810008AE0389E300D1124332E20620CC08E32B7
:1008200021F426FD66C1206406C08C3611F42068D0
:1008300002C0883641F4F60193FD859193FF8191C2
:100840006F018111C0CF982F9554933018F09052BA
:10085000933028F40C5F1F4FFFE3F9830DC08336FC
:1008600031F0833771F0833509F05AC022C0F801A6
:10087000808189830E5F1F4F66246394712C54011D
:1008800014C02801F2E04F0E511CF801A080B18085
:1008900026FF03C0672D70E002C06FEF7FEFC50138
:1008A0002C873FD13C0182012C856FE7262E222226
:1008B00017C02801F2E04F0E511CF801A080B18052
:1008C00026FF03C0672D70E002C06FEF7FEFC50108
:1008D0002C871CD13C012C8550E8252E222A820130
:1008E00023FC1AC005C0B70180E290E065D13A94BC
:1008F000832D90E068167906B0F30EC0F50127FC51
:10090000859127FE81915F01B70190E055D13110AB
:100910003A94F1E06F1A71086114710479F7E6C036
:10092000843611F0893639F5F80127FF07C0608158
:100930007181828193810C5F1F4F08C0608171813A
:10094000882777FD8095982F0E5F1F4F4FE6642E06
:10095000622297FF09C090958095709561957F4FB1
:100960008F4F9F4FF0E86F2A2AE030E0A40150D16A
:10097000A82EA81843C0853731F43FEEB32EB2221B
:100980002AE030E024C099EFB92EB2228F36B9F0B8
:1009900020F4883509F0ADC00DC0803721F08837CC
:1009A00009F0A7C002C020E1B22AB4FE0BC084E067
:1009B000B82A08C024FF09C0E6E0BE2A06C028E025
:1009C00030E005C020E130E002C020E132E0F80173
:1009D000B7FE07C060817181828193810C5F1F4FD8
:1009E00006C06081718180E090E00E5F1F4FA4011E
:1009F0000FD1A82EA8188FE7682E6B2066FE0BC0BB
:100A0000362D3E7FA71450F464FE0AC062FC08C075
:100A1000362D3E7E05C0BA2C362D03C0BA2C01C03F
:100A2000B72C34FF0DC0FE01EA0DF11D808180332B
:100A300011F4397E09C032FF06C0B394B39404C0E8
:100A4000832F867809F0B39433FD13C030FF0EC0B6
:100A50007A2CB31458F4730C7B18B32C07C0B7016D
:100A600080E290E03C87A8D0B3943C85B314B8F3FF
:100A700004C0B31410F43B1801C0312C34FF11C072
:100A8000B70180E390E03C8797D03C8532FF1CC0E3
:100A900031FF03C088E590E002C088E790E0B7012D
:100AA0000CC0832F867881F031FD02C080E201C046
:100AB0008BE237FD8DE2B70190E07ED005C0B70133
:100AC00080E390E079D07A94A714C8F3AA94F40153
:100AD000EA0DF11DB701808190E06ED0A110F6CF34
:100AE00005C0B70180E290E067D03A943110F9CFA9
:100AF0004FCEF7012681378102C02FEF3FEFC901AA
:100B00002C96E2E1FFC0992788270895FC01059003
:100B1000615070400110D8F7809590958E0F9F1FFF
:100B20000895FC016150704001900110D8F7809544
:100B300090958E0F9F1F0895CF93DF93EC013B811B
:100B400030FF34C036FF0AC03F7B3B838E819F81DC
:100B500001969F838E832A8130E02AC032FF0FC026
:100B6000E881F9818081992787FD9095009719F494
:100B700030623B831BC03196F983E8830EC0EA855F
:100B8000FB85099597FF09C02B81019611F480E13F
:100B900001C080E2822B8B8309C02E813F812F5FB1
:100BA0003F4F3F832E839C01332702C02FEF3FEF3F
:100BB000C901DF91CF9108950F931F93CF93DF93D6
:100BC0008C01EB018B8181FD03C00FEF1FEF1AC079
:100BD00082FF0DC02E813F818C819D8128173907AE
:100BE00064F4E881F9810193F983E88306C0E8851C
:100BF000F985802F0995892B41F78E819F81019678
:100C00009F838E83C801DF91CF911F910F9108952B
:100C1000FA01AA27283051F1203181F1E8946F932D
:100C20006E7F6E5F7F4F8F4F9F4FAF4FB1E03ED0D3
:100C3000B4E03CD0670F781F891F9A1FA11D680F71
:100C4000791F8A1F911DA11D6A0F711D811D911DA4
:100C5000A11D20D009F468943F912AE0269F112419
:100C60003019305D3193DEF6CF010895462F47707D
:100C7000405D4193B3E00FD0C9F7F6CF462F4F70D8
:100C8000405D4A3318F0495D31FD4052419302D036
:100C9000A9F7EACFB4E0A6959795879577956795DC
:100CA000BA95C9F700976105710508959B01AC01DC
:100CB0000A2E06945795479537952795BA95C9F703
:100CC000620F731F841F951FA01D08952F923F92DE
:100CD0004F925F926F927F928F929F92AF92BF924C
:100CE000CF92DF92EF92FF920F931F93CF93DF93F8
:100CF000CDB7DEB7CA1BDB0B0FB6F894DEBF0FBE55
:100D0000CDBF09942A88398848885F846E847D84A1
:100D10008C849B84AA84B984C884DF80EE80FD80A3
:100D20000C811B81AA81B981CE0FD11D0FB6F89419
:0E0D3000DEBF0FBECDBFED010895F894FFCFDA
:100D3E0000000003000000009400A0000000696E97
:100D4E00636F7272656374206C656E210A00726542
:100D5E0061645F7061636B65743A207479706520AD
:100D6E0025640A00536E6966666572207265636556
:100D7E0069766564205B25782025785D2025646280
:100D8E003A200025782C00696E742025780A0045DB
:100D9E0052524F522063616E696E74662025780A36
:100DAE00006D63703A20310A0063616E7374617472
:100DBE00206E6F7420636F72726563743A202578AB
:100DCE000A003E200073656E642000666620007483
:100DDE0078206F76657272756E0A006D63703235AB
:100DEE0031355F73656E643A2025640A0073656E53
:100DFE00642074797065206964205B3032206666E9
:0A0E0E00206162202E2E5D0A000014
:00000001FF
