:1000000029C0000042C0000040C000003EC0000007
:100010003CC000003AC0000038C0000036C00000FC
:1000200034C0000032C0000030C000002EC000000C
:100030002CC0000054C2000028C0000026C00000F0
:1000400024C0000022C0000020C000001EC000002C
:100050001CC0000011241FBECFE5D8E0DEBFCDBF1D
:1000600011E0A0E6B0E0E6E9F6E002C005900D92EE
:10007000A434B107D9F711E0A4E4B1E001C01D92A6
:10008000AC36B107E1F749D004C3BACFBA98C298E9
:100090008D989598B898C0988E989698B998C19868
:1000A0008C989498089501C08DE05D9BFECF8CB92B
:1000B0008A30D1F390E00895CF93DF93EC018991DA
:1000C000F2DF88818111FBCF8AE0EDDF80E090E0F4
:1000D000DF91CF910895CF93DF9390916501809147
:1000E00044019817D1F3E0914401F0E0EB5BFE4F3F
:1000F000C081D0E08091440190E001968F719927F2
:1001000080934401CD30D10511F4CAE0D0E08C2FAA
:10011000CADFCE01DF91CF910895CF93DF93CDB7A2
:10012000DEB7A0970FB6F894DEBF0FBECDBF88E84C
:1001300093E128EC30E0F9013197F1F70197D9F715
:1001400010BC8CE089B988E98AB98EE880BD80E668
:1001500090E0909369018093680190936701809388
:10016000660178948EE690E0A7DF11BA17BA14BA48
:1001700012BA18BA15BA08EC10E08EE394DF80E2E8
:1001800092DF409166015091670160E270E0CE011C
:100190000196DBD1CE010196CFD1009769F0FC0129
:1001A000319781E090E08C0F9D1FE80FF91F80814F
:1001B0008A3011F4108203C08BE790E07DDF6EE897
:1001C00070E0CE010196AFD1892B11F45FDFD5CF5E
:1001D00063E970E0CE010196A6D1892B21F456DFA8
:1001E000BA9AC298CACF6AE970E0CE0101969BD153
:1001F000892B11F44BDF27C063EA70E0CE01019632
:1002000092D1892B21F442DFB89AC098B6CF69EA1F
:1002100070E0CE01019687D1892B11F437DF20C021
:100220006FEA70E0CE0101967ED1892B11F42EDFAA
:1002300024C067EB70E0CE01019675D1892B31F4B3
:1002400025DFBA9AC2988D9A959897CF6AEB70E09D
:10025000CE01019668D1892B31F418DF8D9A9598DB
:100260008E9A96988ACF64EC70E0CE0101965BD1AD
:10027000892B31F40BDFB89AC0988C9A94987DCF73
:100280006BEC70E0CE0101964ED1892B21F4FEDE9D
:100290008E9A9698F2CF65ED70E0CE01019643D12B
:1002A000892B31F4F3DEBA9AC2988D9A9598E5CFEE
:1002B00060ED70E0CE01019636D1892B61F4BB9AD6
:1002C000C3988CE49DE1F8013197F1F70197D9F7D4
:1002D000BB98C39852CF62EE70E0CE01019623D155
:1002E000892B61F48B9A939888E893E1F801319710
:1002F000F1F70197D9F78B9893983FCF68EE70E0AC
:10030000CE01019610D1892B61F4A69AAE9884EFA4
:1003100091E0F8013197F1F70197D9F7A698AE98D7
:100320002CCF6BEE70E0CE010196FDD0892B61F4ED
:10033000A79AAF9884EF91E0F8013197F1F7019710
:10034000D9F7A798AF9819CF6EEE70E0CE0101965D
:10035000EAD0892B39F061EF70E0CE010196E3D04D
:10036000892B61F4A29AAA9880ED97E0F801319761
:10037000F1F70197D9F7A298AA98FFCE65EF70E040
:10038000CE010196D0D0892B39F06AEF70E0CE0112
:100390000196C9D0892B61F4A19AA99880ED97E0C4
:1003A000F8013197F1F70197D9F7A198A998E5CE0F
:1003B0006EEF70E0CE010196B6D0892B39F063E084
:1003C00071E0CE010196AFD0892B61F4A59AAD986A
:1003D00080ED97E0F8013197F1F70197D9F7A598EB
:1003E000AD98CBCE67E071E0CE0101969CD0892B11
:1003F00039F06DE071E0CE01019695D0892B61F462
:10040000A39AAB9880ED97E0F8013197F1F7019747
:10041000D9F7A398AB98B1CE61E171E0CE01019616
:1004200082D0892B61F48F9A979880ED97E0F8013C
:100430003197F1F70197D9F78F9897989ECE66E19B
:1004400071E0CE0101966FD0892B61F4A49AAC982B
:1004500080ED97E0F8013197F1F70197D9F7A4986B
:10046000AC988BCE6BE171E0CE0101965CD0892B0C
:1004700019F0898181110CC0A09AA89880ED97E0AD
:10048000F8013197F1F70197D9F7A098A89875CEA0
:1004900060E271E0CE01019646D0892B49F4B49810
:1004A000B29B03C084E291E018C08BE291E015C0DA
:1004B00068E271E0CE01019636D0892B61F48A9A08
:1004C000929A88E893E1F8013197F1F70197D9F70B
:1004D0008A98929852CE83E391E0EEDD4ECE1F9241
:1004E0000F920FB60F9211248F939F93AF93BF93E8
:1004F000EF93FF93E5E6F1E0A081B0E08CB1AB5B58
:10050000BE4F8C93808190E001968F7199278083F4
:10051000FF91EF91BF91AF919F918F910F900FBE7F
:100520000F901F901895FB01DC018D9101908019AF
:100530000110D9F3990B0895FC0101900020E9F70F
:10054000809590958E0F9F1F0895A0E0B0E0EAEA95
:10055000F2E072C0EC016A01FA01838180FD03C000
:10056000C0E0D0E01AC016161706D4F77B018E0142
:100570000EC0C60117D08F3FFFEF9F0789F3F80128
:1005800081938F01F1E0EF1AF1080A9721F021E041
:10059000E216F10471F7F8011082CE01CDB7DEB793
:1005A000E8E066C0CF93DF93EC013B8130FF34C0BD
:1005B00036FF0AC03F7B3B838E819F8101969F83DC
:1005C0008E832A8130E02AC032FF0FC0E881F98192
:1005D0008081992787FD9095009719F430623B83BD
:1005E0001BC03196F983E8830EC0EA85FB85099527
:1005F00097FF09C02B81019611F480E101C080E2D0
:10060000822B8B8309C02E813F812F5F3F4F3F8319
:100610002E839C01332702C02FEF3FEFC901DF91EA
:10062000CF9108952F923F924F925F926F927F9257
:100630008F929F92AF92BF92CF92DF92EF92FF92F2
:100640000F931F93CF93DF93CDB7DEB7CA1BDB0B9E
:100650000FB6F894DEBF0FBECDBF09942A88398843
:1006600048885F846E847D848C849B84AA84B9844A
:10067000C884DF80EE80FD800C811B81AA81B98156
:10068000CE0FD11D0FB6F894DEBF0FBECDBFED016A
:060690000895F894FFCF6D
:10069600000000030000000053006B0000007379A7
:1006A6007374656D207374617274006572726F7213
:1006B6003A206275666665722066756C6C006175B7
:1006C600746F006D616E75616C00706F727472612B
:1006D600697400766964656F006E69676874007096
:1006E600726F6772616D006176006C616E64736330
:1006F60061706500737469746368006E6967687415
:10070600736E617000736875747465727370656575
:100716006400666F637573007A69007A6F0075709E
:10072600001B5B4100646F776E001B5B42006C65CB
:100736006674001B5B44007269676874001B5B4348
:100746000064697370006D656E750066756E630092
:100756006C6564006C6564206F6E006C6564206F68
:10076600666600756E6B6E6F776E20636F6D6D617A
:040776006E640000AD
:00000001FF
