:1000000033C000004CC000004AC0000048C00000DF
:1000100046C0000044C0000042C0000040C00000D4
:100020003EC000003CC000003AC0000038C00000E4
:1000300036C0000034C0000032C0000030C00000F4
:100040002EC000002CC00000BAC0000028C0000074
:1000500026C0000024C0000022C0000020C0000014
:100060001EC000001CC0000011241FBECFEFD8E04E
:10007000DEBFCDBF11E0A0E0B1E0ECE0F2E002C0F5
:1000800005900D92A631B107D9F711E0A6E1B1E0D4
:1000900001C01D92A036B107E1F74FD0B5C0B0CF77
:1000A00001C08DE09091C00095FFFCCF8093C60009
:1000B0008A30B9F390E00895CF93DF939091570180
:1000C000809116019817D1F3E0911601F0E0E95EF6
:1000D000FE4FC081D0E08091160190E001968F73B1
:1000E000992780931601CD30D10511F4CAE0D0E0F4
:1000F0008C2FD6DFCE01DF91CF91089588B1807F1C
:1001000088B908958091580190915901009719F488
:1001100087E090E001C001979093590180935801C6
:10012000E0915801F0915901E25FFE4F808188B95A
:1001300080E197E20197F1F7E1CF1092C5008CE0E2
:100140008093C40088E98093C10080E091E090939F
:100150005D0180935C0190935B0180935A017894D8
:1001600087B18F6087B910925901109258018AE0C7
:1001700088B980E197E20197F1F7C0DFC0E1D7E2EB
:100180009BDF8136A1F4809158019091590101962D
:10019000877099279093590180935801FC01E25F81
:1001A000FE4F808188B9CE010197F1F706C08337F1
:1001B00011F4A8DFE5CF8837E1F7A0DFE1CF1F9288
:1001C0000F920FB60F9211248F939F93AF93BF930B
:1001D000EF93FF93E7E5F1E0A081B0E08091C600E6
:1001E000A95EBE4F8C93808190E001968F73992712
:1001F0008083FF91EF91BF91AF919F918F910F906D
:0C0200000FBE0F901F901895F894FFCFD0
:10020C00000000030000000050005C0000000A0227
:06021C00060405010908BB
:00000001FF
