:1000000033C000004DC000000C94880949C00000B6
:1000100047C0000045C0000043C0000041C00000D0
:100020003FC000003DC000003BC0000039C00000E0
:1000300037C0000035C0000033C0000031C00000F0
:100040002FC000002DC000000C94FE0929C0000044
:1000500027C0000025C0000023C0000021C0000010
:100060001FC000001DC0000011241FBECFEFD8E04C
:10007000DEBFCDBF12E0A0E0B1E0E0E1FCE102C0F4
:1000800005900D92A639B107D9F714E0A6E9B2E0C0
:1000900001C01D92A93FB107E1F794D60C94060E5A
:1000A000AFCFCF92DF92EF92FF920F931F936B012E
:1000B0007C0120E030E040E05FE4DAD287FD0CC054
:1000C00020E030E040E05FE4C701B60197D128D3DB
:1000D0008B019C01305805C0C701B60121D38B01AB
:1000E0009C01B801C9011F910F91FF90EF90DF9023
:1000F000CF900895A4E0B0E0E0E8F0E00C94D10DDA
:100100007C016A01FC018081823008F44AC1FB0154
:100110009081923008F442C1843079F4943009F02F
:1001200040C1F7019181FB018181981709F439C120
:10013000AEE0EA2EA1E0FA2E34C1943009F42EC1CB
:10014000923091F4823009F02CC188E0F701DA0195
:1001500001900D928A95E1F7FB018181F701918170
:100160008923FA0181831CC1823009F417C1F70188
:1001700082819381FB01A281B381F7010481158102
:1001800026813781FB0184809580A680B780FC01A1
:10019000EA1BFB0BAF01F7FF04C0442755274E1B9A
:1001A0005F0B403251050CF074C01E161F06B4F5EB
:1001B00024013501042E04C0769467945794479423
:1001C0000A94D2F749825A826B827C82412C512C4C
:1001D0003201439404C0440C551C661C771C4A959C
:1001E000D2F741E0441A51086108710848205920AB
:1001F0006A207B20812C912C540183944528462829
:10020000472819F4812C912C540149805A806B8025
:100210007C8084289528A628B72846C0EF2B09F4AF
:1002200043C0840F951F28013901042E04C0769421
:100230006794579447940A94D2F749825A826B8202
:100240007C82412C512C3201439404C0440C551C37
:10025000661C771C4A95D2F741E0441A51086108A0
:100260007108402251226222732201E010E020E056
:1002700030E045284628472819F400E010E09801AE
:1002800049805A806B807C800429152926293729CA
:100290000BC0A817B90724F4812C912C540104C079
:1002A000CD0100E010E09801F7014181FB0151818F
:1002B000451709F446C0442349F024013501401A8A
:1002C000510A620A730A9301820104C008191909CC
:1002D0002A093B0937FD05C0F60111829383828309
:1002E0000CC041E0F60141839383828330952095D1
:1002F000109501951F4F2F4F3F4F04831583268381
:1003000037830EC0880F991FAA1FBB1FF601848375
:100310009583A683B7838281938101979383828398
:10032000F60184819581A681B781AC01BD01415060
:100330005109610971094F3F5F4F6F4F7F4310F3C0
:100340000CC0F601418393838283080D191D2A1D79
:100350003B1D048315832683378383E0F601808366
:10036000448155816681778177FF1AC0DB01CA011C
:1003700081709927AA27BB2776956795579547954A
:10038000842B952BA62BB72B84839583A683B783C9
:100390008281938101969383828302C07B0101C095
:1003A0007601C7012496E0E10C94ED0DA0E2B0E0E7
:1003B000ECEDF1E00C94DF0D6D8F7E8F8F8F98A3A5
:1003C000298F3A8F4B8F5C8FBE016F5E7F4FCE01BE
:1003D0004D9632D3BE01675F7F4FCE0149962CD335
:1003E000AE014F5F5F4FBE01675F7F4FCE01419609
:1003F00081DE58D2A096E2E00C94FB0DA0E2B0E0C2
:10040000E4E0F2E00C94DF0D6D8F7E8F8F8F98A368
:10041000298F3A8F4B8F5C8FBE016F5E7F4FCE016D
:100420004D960AD3BE01675F7F4FCE01499604D334
:100430008A8591E089278A87AE014F5F5F4FBE01B1
:10044000675F7F4FCE01419655DE2CD2A096E2E049
:100450000C94FB0DA0E2B0E0E0E3F2E00C94D10DCF
:100460006D8F7E8F8F8F98A3298F3A8F4B8F5C8FE4
:10047000BE016F5E7F4FCE014D96DED2BE01675F3B
:100480007F4FCE014996D8D29989923008F412C094
:100490008985823008F41AC0943021F4823009F43E
:1004A000B4C008C0843021F4923009F4AEC00EC04C
:1004B000923051F481E02A899A85291301C080E0A5
:1004C0008A8BCE014196A3C0823051F481E02A8903
:1004D0009A85291301C080E08A87CE01099697C0CA
:1004E0008D889E88AF88B88C0D851E852F853889AC
:1004F000E0E2F0E080E090E0DC01C12CD12C76015C
:1005000040E050E0BA0180FE18C0400F511F621F4A
:10051000731F8C0D9D1DAE1DBF1D412C512C320132
:100520004394401751076207730718F0412C512C70
:100530003201840D951DA61DB71DCC0CDD1CEE1CD3
:10054000FF1C37FF02C06894C0F8000F111F221F64
:10055000331FB694A794979487943197A1F62B896B
:100560003C89EB85FC852E0F3F1F2E5F3F4F3C8360
:100570002B8321E0EA893A85E31301C020E02A8336
:10058000EB81FC810CC080FF05C07695679557957F
:1005900047957068B695A795979587953196B7FD5D
:1005A000F2CF9F010CC0880F991FAA1FBB1F77FDB8
:1005B0008160440F551F661F771F21503109009736
:1005C000A105E0E4BE0778F32B833C838C019D01F9
:1005D0000F77112722273327003411052105310514
:1005E00059F487FD09C0452B462B472B29F0805C29
:1005F0009F4FAF4FBF4F80788D839E83AF83B88767
:1006000083E08983CE01019602C08EE091E04AD159
:10061000A096E0E10C94ED0DA8E1B0E0E2E1F3E09A
:100620000C94DF0D6D8B7E8B8F8B988F298B3A8B83
:100630004B8B5C8BBE01675F7F4FCE014596FCD133
:10064000BE016F5F7F4FCE014196F6D18985823022
:1006500050F08981823038F0BE016F5F7F4FCE014C
:10066000099659D201C08FEF6896E2E00C94FB0D19
:10067000A8E1B0E0EEE3F3E00C94DF0D6D8B7E8B30
:100680008F8B988F298B3A8B4B8B5C8BBE01675F6E
:100690007F4FCE014596D0D1BE016F5F7F4FCE0117
:1006A0004196CAD18985823050F08981823038F0F4
:1006B000BE016F5F7F4FCE0109962DD201C08FEF33
:1006C0006896E2E00C94FB0DA8E1B0E0EAE6F3E006
:1006D0000C94DF0D6D8B7E8B8F8B988F298B3A8BD3
:1006E0004B8B5C8BBE01675F7F4FCE014596A4D1DB
:1006F000BE016F5F7F4FCE0141969ED189858230CA
:1007000050F08981823038F0BE016F5F7F4FCE019B
:10071000099601D201C081E06896E2E00C94FB0DDD
:10072000ACE0B0E0E6E9F3E00C94DD0D69877A8790
:100730008B879C87BE016F5F7F4FCE0109967CD16E
:100740008981823091F1823080F1843041F48A8154
:10075000882331F100E010E020E030E829C02B814F
:100760003C8137FD22C02F3131058CF78EE190E0BE
:10077000821B930B0D811E812F81388504C0369515
:100780002795179507958A95D2F78A81882381F056
:1007900030952095109501951F4F2F4F3F4F08C062
:1007A0000FEF1FEF2FEF3FE703C000E010E09801CD
:1007B000B801C9012C96E4E00C94F90DA8E0B0E072
:1007C000E4EEF3E00C94D90D8B019C011A826115C3
:1007D00071058105910519F482E089835CC083E08D
:1007E00089834EE150E05C834B83C901B8011ED779
:1007F000019797FF39C0EE27FF27E81BF90B41E06F
:1008000050E060E070E00E2E04C0440F551F661FDC
:10081000771F0A94D2F741505109610971094023A9
:10082000512362237323C12CD12C7601C394452B11
:10083000462B472B19F4C12CD12C760104C03695D8
:10084000279517950795EA95D2F70C291D292E298A
:100850003F290D831E832F8338872EE130E0281B2C
:10086000390B3C832B8317C0009729F40D831E831B
:100870002F83388710C0082E04C0000F111F221FBD
:10088000331F0A94D2F70D831E832F833887481BAA
:10089000590B5C834B83CE01019604D02896E8E087
:1008A0000C94F50D0F931F93CF93DF93DC011496F7
:1008B0004D915D916D917C9117971196EC911197E7
:1008C0008C91823020F460618FEF90E0A6C084307C
:1008D00009F49EC0823009F495C0411551056105A7
:1008E000710509F492C012962D913C91139722380C
:1008F0008FEF38070CF058C0C2E8DFEFC21BD30BF4
:10090000CA31D1056CF58A019B010C2E04C03695C5
:100910002795179507950A94D2F781E090E0A0E01B
:10092000B0E00C2E04C0880F991FAA1FBB1F0A94A9
:10093000D2F70197A109B10984239523A623B723F0
:1009400041E050E060E070E0892B8A2B8B2B19F49A
:1009500040E050E0BA01402B512B622B732B03C0B7
:1009600040E050E0BA01DB01CA018F779927AA273E
:10097000BB2780349105A105B10539F447FF09C0B3
:10098000405C5F4F6F4F7F4F04C0415C5F4F6F4FC4
:100990007F4F81E090E041155105610520E4720729
:1009A00048F580E090E026C0203831058CF5DB0169
:1009B000CA018F779927AA27BB2780349105A10503
:1009C000B10539F447FF09C0405C5F4F6F4F7F4F5F
:1009D00004C0415C5F4F6F4F7F4F77FD04C0C9017A
:1009E00081589F4F07C07695679557954795C901E0
:1009F00080589F4F97E076956795579547959A95BC
:100A0000D1F70BC080E090E005C080E090E005C029
:100A10008FEF90E040E050E0BA01982F9695E0FB10
:100A200097F9362F80FB37F9642F752F832FDF91CD
:100A3000CF911F910F910895CF92DF92EF92DC0139
:100A4000FB01CC901196DC90119712968C91129725
:100A50003FE7E32EE8226E2DA60170E0982F991F44
:100A60009927991F13962C91822F880F892B90E03C
:100A700027FB222720F92183009729F541155105ED
:100A80006105710511F482E027C082E89FEF93832E
:100A9000828327E0440F551F661F771F2A95D1F7E1
:100AA00083E0808309C0440F551F661F771F828132
:100AB000938101979383828341155105610580E4F9
:100AC000780788F320C08F3F910579F441155105CF
:100AD0006105710519F484E0808319C0E4FE03C048
:100AE00081E0808310C010820EC08F5791099383DC
:100AF000828383E0808387E0440F551F661F771F42
:100B00008A95D1F770644483558366837783EF9029
:100B1000DF90CF900895CF93FC01DB01908192305C
:100B200008F452C08C91823008F44EC0943071F4B5
:100B3000843039F411962C9130E08181281B3109E1
:100B400048C08181882309F43FC03BC0843029F428
:100B500011968C91811138C034C0923019F48230D2
:100B6000B9F735C0823069F3C18111968C91119724
:100B7000C8131DC02281338112968D919C911397C9
:100B8000821793070CF413C0281739070CF417C009
:100B9000448155816681778114968D919D910D9048
:100BA000BC91A02D84179507A607B70718F4C111AB
:100BB00008C00AC0481759076A077B0740F4C111EB
:100BC00003C02FEF3FEF05C021E030E002C020E07E
:100BD00030E0C901CF91089568EC70E0A0E9B1E080
:100BE00021C02898FB013197F1F720E030E0FC01AB
:100BF000408150E0022E02C0559547950A94E2F7D5
:100C000040FF02C0289A01C02898FB013197F1F7F4
:100C10002F5F3F4F2830310551F7289AFD0131975A
:100C2000F1F70196FC0120812111DBCF08958EBDE3
:100C30000DB407FEFDCF8EB508951F93CF93DF93BC
:100C400000D0CDB7DEB7182F2A9885E04A83698394
:100C5000EEDF812FECDF6981862FE9DF4A81842F67
:100C6000E6DF2A9A0F900F90DF91CF911F910895A0
:100C70001F93CF93DF931F92CDB7DEB7182F2A981B
:100C800082E06983D4DF812FD2DF6981862FCFDFB5
:100C90002A9A0F90DF91CF911F9108958FEFC7CFC0
:100CA000CF93C82F2A9883E0C2DF8C2FC0DFF6DFF6
:100CB0002A9ACF9108959091C00095FFFCCF809320
:100CC000C60090E008959091D7028091D6029817BF
:100CD000D1F3E091D602F0E0EA56FD4F408150E0BA
:100CE0002091D60230E02F5F3F4F2F7333272093A0
:100CF000D6024D30510539F3CA010895CF93DF93E1
:100D0000CDB7DEB7C058D1090FB6F894DEBF0FBE1D
:100D1000CDBFFE01EB57FF4F419151919F0160E81C
:100D200070E0CE010196D0D4CE01019655DFC058B7
:100D3000DF4F0FB6F894DEBF0FBECDBFDF91CF916E
:100D40000895DF92EF92FF920F931F93CF93DF935B
:100D5000EC01F8948091E0048D7F8093E004809111
:100D6000E0048B7F8093E0048091E004877F809390
:100D7000E0048091E0048F7E8093E0048091E004A1
:100D80008E7F8093E0047894D12C80EDE82E87E06C
:100D9000F82E09C0FE01E00FF11F80818CDFC70132
:100DA0000197F1F7D3940D2D10E0CE0158D4081718
:100DB000190780F3DF91CF911F910F91FF90EF9072
:100DC000DF900895CF93DF93CDB7DEB7C158D10937
:100DD0000FB6F894DEBF0FBECDBF1092C50083E3FF
:100DE0008093C40088E98093C10080E091E09093F3
:100DF000F6048093F5049093F4048093F3047894BC
:100E000088E893E128EC30E0F9013197F1F7019798
:100E1000D9F781E084B985B986E191E0DDDE219AD8
:100E200080E48093800089E08093810010928500A7
:100E300010928400109289001092880088E08093BC
:100E40006900E99A789460E5C62E00E21EE478EC29
:100E5000E72EF12C0AC081E291E0BEDE88E893E142
:100E6000F7013197F1F70197D9F784B18C6284B912
:100E70002498CCBC8CB58C7F8CBD8DB581608DBD2C
:100E8000229A2A9AC8010197F1F72A9880ECCFDEBE
:100E90002A9AC8010197F1F740E860EE8FE0CDDEB5
:100EA0008EE0FEDE807E8038B1F664E08AE2E0DE2D
:100EB0006AEB89E2DDDE67E088E2DADE4FEF63E0CD
:100EC0008BE2BBDE60E680E6D3DE48E06FEF8FE0CA
:100ED000B4DE40E060EE8FE0B0DE5AE0D52E8EE06A
:100EE000DFDE807E19F0DA94D1F7B5CFDD2009F48A
:100EF000B2CF08C084EF91E0F8013197F1F7019784
:100F0000D9F706C008EC10E047EBC42E41E0D42E20
:100F10008091EC04882371F38DE291E05DDEF8941A
:100F20001092DB04789438EEE32E33E0F32E8FE357
:100F300091E052DE81E491E004DF88EE93E0F80175
:100F40003197F1F70197D9F78091E00481FD4FC007
:100F5000F89488EF9AE2F8013197F1F70197D9F701
:100F600087E491E0EEDEB70180E090E027DC2B0122
:100F70003C0120E030E04AEF54E46CDA1B014C0104
:100F800020E030E040E85FE3732D992D9DDB87FD85
:100F900023C020E03FEF4FE757E4622D732D882DEB
:100FA000992D3ADB181694F420E030E040E251E449
:100FB000C301B2014FDA75D805C0C8010197F1F736
:100FC0006150710961157105C1F787C1622D732DDB
:100FD000882D992D66D802C061E070E0CB010197A1
:100FE000F1F77BC128E1E21A2CEFF20AA0CF8BE4E3
:100FF00091E0A7DE20E2E22E2EE4F22EC701019757
:10100000F1F78BE691E09DDEC7010197F1F78CE8DF
:1010100091E097DE88EE93E0F8013197F1F70197C0
:10102000D9F78FEA91E0D8DDF894F12C1BC08F2D11
:1010300090E0FC01EC51FB4F2081E1E0F0E0EC0F8F
:10104000FD1FE80FF91F20831F922F931F92FF921D
:10105000DF92CF9253DEF3940F900F900F900F908A
:101060000F900F908091E304F81608F38091E30449
:101070008091E1049091E2041092EC0478948091C4
:10108000E3041F928F9385EC91E09F938F9336DE5C
:10109000F090E3048DED91E09FDDF8941092DB0475
:1010A000789489EE91E04DDE80E29EE40197F1F7BD
:1010B0008DEE91E046DE0F900F900F900F9088E834
:1010C00093E1F8013197F1F70197D9F78091E004A6
:1010D00081FF60C081EF91E034DE8CE49DE1F80196
:1010E0003197F1F70197D9F72FEF07C088EE93E01A
:1010F000F8013197F1F70197D9F78091E00481FD6C
:1011000002C0215099F78091E00481FFFFC088EB75
:101110009BE0F8013197F1F70197D9F78091E0044E
:1011200081FF0CC08091E00482FD08C08091E00442
:1011300083FD04C08091E00484FF05C08AEF91E044
:101140004BDD23E028C0F8941092DC041092DD04FB
:101150001092DE041092DF0481E08093DB04789427
:101160008F2C912CA12CB12C82E092E035DD809166
:10117000E0048E7F8093E0048DE092E0E2DD82E087
:101180009ADD412C512C3201EE24E394F12CEC0E2B
:10119000FD1E2CC021E01F922F9384E192E09F93CB
:1011A0008F93CF57DF4F2883C158D040A7DD0F90D2
:1011B0000F900F900F90CF57DF4F2881C158D0402C
:1011C00094C0F70131907F01832D75DD1F923F920E
:1011D0008BE292E09F938F9391DDF1E04F1A5108DB
:1011E000610871080F900F900F900F90D301C2010A
:1011F000880D991DAA1DBB1D892B8A2B8B2B09F7E6
:101200002FEFF8944091DC045091DD046091DE04EE
:101210007091DF043091DB04789484EF91E0F80161
:101220003197F1F70197D9F7313019F4215049F787
:1012300002C0211103C089E392E01DC04815590581
:101240006A057B0519F082E492E015C02FEFF8944F
:101250003091DB04789488EE93E0F8013197F1F750
:101260000197D9F7353019F0215089F702C02111C3
:1012700041C08CE492E0B0DC80E01DDD88E893E1C1
:10128000F8013197F1F70197D9F788E99AE3F80166
:101290003197F1F70197D9F787E491E052DD88E9BA
:1012A0009AE3F8013197F1F70197D9F788E99AE3C2
:1012B000F8013197F1F70197D9F787E491E041DD23
:1012C00088E99AE3F8013197F1F70197D9F7F89493
:1012D0001092DB04789424E008C0789420E6E216AB
:1012E0002AEEF20608F47ECE22CE1F922F9389E5D5
:1012F00092E004C01F921F9280E792E09F938F9329
:10130000FDDC0F900F900F900F9002CE22E043CFA4
:101310001F920F920FB60F9211240F931F932F93CA
:101320003F934F935F936F937F938F939F93AF936D
:10133000BF93CF93DF93EF93FF938CE2B1DC082F41
:1013400081FF0AC02A9883E072DC81E770DC2A9A68
:1013500040E062E08CE271DC00FF35C02A9883E057
:1013600066DC81E664DC9ADC28E0829FC0011124FF
:101370009093E2048093E104C091E104D091E204EF
:101380008DDC829586958770C82BD093E204C0933C
:10139000E10484DC83DC82DC8093E30410E007C09A
:1013A000C12FD0E07BDCCC51DB4F88831F5F809165
:1013B000E3041817A8F32A9A81E08093EC0440E034
:1013C00061E08CE23ADC02FF04C040E064E08BE2C2
:1013D00034DCFF91EF91DF91CF91BF91AF919F915D
:1013E0008F917F916F915F914F913F912F911F91BD
:1013F0000F910F900FBE0F901F9018951F920F9294
:101400000FB60F9211242F933F934F935F936F93D7
:101410007F938F939F93AF93BF93CF93EF93FF935C
:10142000C091C6008091E00481608093E0048091C7
:10143000DB04823009F49BC030F4882359F08130FA
:1014400009F0E2C059C0833009F4AFC0843009F01C
:10145000DBC0B5C0CD30E1F5E091ED04F091EE04D4
:10146000E552FD4F10828091DB028F3441F4809170
:10147000DC028B3421F48091E00482600BC0809107
:10148000DB02853451F48091DC02823531F48091A5
:10149000E00484608093E0048DC08091DB028E3490
:1014A00041F48091DC028F3421F48091E004886063
:1014B000F1CF8091DB02833441F48091DC028F34E0
:1014C00021F48091E0048061E5CF8091DB0272C05D
:1014D000CA3009F499C0CC2309F496C08091ED0478
:1014E0009091EE04FC01E552FD4FC083019690936C
:1014F000EE048093ED0488C01F92CF9388E892E0B9
:101500009F938F93FBDB2C2F2F778091EF0490918B
:10151000F004A091F104B091F204F7E0880F991F54
:10152000AA1FBB1FFA95D1F7822B8093EF049093EB
:10153000F004A093F104B093F2040F900F900F9079
:101540000F90C7FD61C022E02093DB048093DC0490
:101550009093DD04A093DE04B093DF041092EF04B7
:101560001092F0041092F1041092F2044DC02C2F4E
:101570002F778091EF049091F004A091F104B09145
:10158000F204E7E0880F991FAA1FBB1FEA95D1F765
:10159000822B8093EF049093F004A093F104B09316
:1015A000F204C7FD31C083E02DC0C093DA0284E0AD
:1015B0008093DB041092EE041092ED0425C020917C
:1015C000ED043091EE04F901E552FD4FC0832F5F29
:1015D0003F4F3093EE042093ED04A90160E070E0EA
:1015E0008091EF049091F004A091F104B091F20485
:1015F000481759076A077B0739F43093D9022093BB
:10160000D80285E08093DB04FF91EF91CF91BF91E9
:10161000AF919F918F917F916F915F914F913F918A
:101620002F910F900FBE0F901F90189506D084FF3A
:101630000895CB0102D0805F0895AA27992329F449
:10164000A85F982B11F480E10895903118F4AD5FF4
:101650009295A395990FE8F78A2F99270895FC0191
:1016600001900020E9F7809590958E0F9F1F0895B7
:101670000F931F93CF93DF938C01EB018B8181FD3F
:1016800003C00FEF1FEF1AC082FF0DC02E813F81F4
:101690008C819D812817390764F4E881F9810193D1
:1016A000F983E88306C0E885F985802F0995892BA1
:1016B00041F78E819F8101969F838E83C801DF91C0
:1016C000CF911F910F910895AEE0B0E0E9E6FBE005
:1016D00074C28C01CA0146E04C831A83098377FFE8
:1016E00002C060E070E8615071097E836D83A901DA
:1016F000BC01CE01019611D04D815E8157FD0AC01B
:101700002F813885421753070CF49A01F801E20F34
:10171000F31F10822E96E4E06CC2ACE0B0E0E2E988
:10172000FBE03DC27C016B018A01FC01178216823D
:10173000838181FFBAC188248394912C8C0E9D1ED5
:10174000F7019381F60193FD859193FF81916F01DC
:10175000882309F4A6C1853239F493FD859193FF5E
:1017600081916F01853221F4B70190E081DFE8CFEC
:10177000712C312C20E02032A8F48B3261F028F457
:10178000803251F0833271F40BC08D3239F08033E6
:1017900049F4216028C02260246025C0286023C04D
:1017A000206121C027FD27C0382F30533A3078F40C
:1017B00026FF06C0FAE07F9E300D1124732E13C061
:1017C0008AE0389E300D1124332E20620CC08E32F8
:1017D00021F426FD66C1206406C08C3611F4206811
:1017E00002C0883641F4F60193FD859193FF819103
:1017F0006F018111C0CF982F9554933018F09052FB
:10180000933028F40C5F1F4FFFE3F9830DC083363C
:1018100031F0833771F0833509F05AC022C0F801E6
:10182000808189830E5F1F4F66246394712C54015D
:1018300014C02801F2E04F0E511CF801A080B180C5
:1018400026FF03C0672D70E002C06FEF7FEFC50178
:101850002C873CD13C0182012C856FE7262E222269
:1018600017C02801F2E04F0E511CF801A080B18092
:1018700026FF03C0672D70E002C06FEF7FEFC50148
:101880002C8719D13C012C8550E8252E222A820173
:1018900023FC1AC005C0B70180E290E0E9DE3A946B
:1018A000832D90E068167906B0F30EC0F50127FC91
:1018B000859127FE81915F01B70190E0D9DE31105B
:1018C0003A94F1E06F1A71086114710479F7E6C077
:1018D000843611F0893639F5F80127FF07C0608199
:1018E0007181828193810C5F1F4F08C0608171817B
:1018F000882777FD8095982F0E5F1F4F4FE6642E47
:10190000622297FF09C090958095709561957F4FF1
:101910008F4F9F4FF0E86F2A2AE030E0A401E1D01A
:10192000A82EA81843C0853731F43FEEB32EB2225B
:101930002AE030E024C099EFB92EB2228F36B9F0F8
:1019400020F4883509F0ADC00DC0803721F088370C
:1019500009F0A7C002C020E1B22AB4FE0BC084E0A7
:10196000B82A08C024FF09C0E6E0BE2A06C028E065
:1019700030E005C020E130E002C020E132E0F801B3
:10198000B7FE07C060817181828193810C5F1F4F18
:1019900006C06081718180E090E00E5F1F4FA4015E
:1019A000A0D0A82EA8188FE7682E6B2066FE0BC06B
:1019B000362D3E7FA71450F464FE0AC062FC08C0B6
:1019C000362D3E7E05C0BA2C362D03C0BA2C01C080
:1019D000B72C34FF0DC0FE01EA0DF11D808180336C
:1019E00011F4397E09C032FF06C0B394B39404C029
:1019F000832F867809F0B39433FD13C030FF0EC0F7
:101A00007A2CB31458F4730C7B18B32C07C0B701AD
:101A100080E290E03C872CDEB3943C85B314B8F3AD
:101A200004C0B31410F43B1801C0312C34FF11C0B2
:101A3000B70180E390E03C871BDE3C8532FF1CC091
:101A400031FF03C088E590E002C088E790E0B7016D
:101A50000CC0832F867881F031FD02C080E201C086
:101A60008BE237FD8DE2B70190E002DE05C0B701E1
:101A700080E390E0FDDD7A94A714C8F3AA94F40102
:101A8000EA0DF11DB701808190E0F2DDA110F6CFE3
:101A900005C0B70180E290E0EBDD3A943110F9CF58
:101AA0004FCEF7012681378102C02FEF3FEFC901EA
:101AB0002C96E2E190C0FC0105906150704001104D
:101AC000D8F7809590958E0F9F1F0895FC01615067
:101AD000704001900110D8F7809590958E0F9F1F50
:101AE0000895FA01AA27283051F1203181F1E894B4
:101AF0006F936E7F6E5F7F4F8F4F9F4FAF4FB1E001
:101B00003ED0B4E03CD0670F781F891F9A1FA11DFB
:101B1000680F791F8A1F911DA11D6A0F711D811DFC
:101B2000911DA11D20D009F468943F912AE0269FC1
:101B300011243019305D3193DEF6CF010895462F20
:101B40004770405D4193B3E00FD0C9F7F6CF462F01
:101B50004F70405D4A3318F0495D31FD405241936A
:101B600002D0A9F7EACFB4E0A69597958795779527
:101B70006795BA95C9F700976105710508959B01AE
:101B8000AC010A2E06945795479537952795BA9537
:101B9000C9F7620F731F841F951FA01D08952F9210
:101BA0003F924F925F926F927F928F929F92AF92ED
:101BB000BF92CF92DF92EF92FF920F931F93CF933A
:101BC000DF93CDB7DEB7CA1BDB0B0FB6F894DEBFD1
:101BD0000FBECDBF09942A88398848885F846E84F7
:101BE0007D848C849B84AA84B984C884DF80EE8041
:101BF000FD800C811B81AA81B981CE0FD11D0FB64A
:101C0000F894DEBF0FBECDBFED010895F894FFCF6D
:101C100000000003000000005B06630600000000F7
:101C2000000000000000696E697420646F6E650A30
:101C3000006D6370323531353A20300A006C6F6FB9
:101C40006B696E6720666F72206D6F64656D2E2EF6
:101C500000415445300D002B2B2B0041542B4347A2
:101C600044434F4E543D312C224950222C22676F61
:101C7000616D2E636F6D222C2C0D0041542543475E
:101C800050434F3D312C225041502C776170757379
:101C90006572312C776170222C320D00415424443E
:101CA000455354494E464F3D22682E716172746906
:101CB000732E636F6D222C312C35332C310D006661
:101CC0006F756E64210A006275665B25645D203D58
:101CD0002025780A0073656E64696E672070616301
:101CE0006B65742073697A652025640A00636F6EE2
:101CF0006E656374696E670A0041740D0061540D6E
:101D0000004154442A3937230D00666C6167732102
:101D10000A00707574206C656E20310A0074656D60
:101D2000703A0A006661696C656420746F20636FA5
:101D30006E6E6563743A2025640A0073656E7420C4
:101D4000627974652025780A006E6F2061636B3FAD
:101D50000A006261642061636B3F0A006E6F20704D
:101D600061796C6F61643F0A0073656E6420706115
:101D7000636B6574206572726F723A2025640A0085
:101D800070696E6720726573706F6E73653A207448
:101D90007970652025640A00676F74206279746524
:061DA0002025630A00008B
:00000001FF
