:1000000033C000004CC00000B8C3000048C000006E
:1000100046C0000044C0000042C0000040C00000D4
:100020003EC000003CC000003AC0000038C00000E4
:1000300036C0000034C0000032C0000030C00000F4
:100040002EC000002CC000002DC4000028C00000FD
:1000500026C0000024C0000022C0000020C0000014
:100060001EC000001CC0000011241FBECFEFD8E04E
:10007000DEBFCDBF11E0A0E0B1E0EEE3FFE002C0E3
:1000800005900D92A23CB107D9F712E0A2ECB1E0C5
:1000900001C01D92A636B107E1F7CFD04EC7B0CF51
:1000A0008EBD0DB407FEFDCF8EB508951F93CF937F
:1000B000DF9300D0CDB7DEB7182F2A9885E04A83AA
:1000C0006983EEDF812FECDF6981862FE9DF4A81CA
:1000D000842FE6DF2A9A0F900F90DF91CF911F9126
:1000E00008951F93CF93DF931F92CDB7DEB7182FDC
:1000F0002A9882E06983D4DF812FD2DF6981862F3D
:10010000CFDF2A9A0F90DF91CF911F9108958FEF43
:10011000C7CFCF93C82F2A9883E0C2DF8C2FC0DFD0
:10012000F6DF2A9ACF91089501C08DE09091C0002A
:1001300095FFFCCF8093C6008A30B9F390E0089514
:10014000CF93DF93909103028091C2019817D1F36E
:10015000E091C201F0E0ED53FE4FC081D0E080910C
:10016000C20190E001968F7399278093C201CD3030
:10017000D10511F4CAE0D0E08C2FD6DFCE01DF919B
:10018000CF9108955F98579A80EC93E00197F1F72B
:100190009FB7F89457988AEA8A95F1F789B19FBF7B
:1001A000E0E4F3E03197F1F74F9B02C080780895C7
:1001B00081E00895982F2FB7F894579A85E08A9593
:1001C000F1F79111579882E28A95F1F789B1880F7A
:1001D000880B892392E79A95F1F75798662311F0D7
:1001E0005F9A579A2FBF9AE19A95F1F70895CF93A6
:1001F000DF93C82FD8E08C2F8170D13011F060E0F0
:1002000001C061E0D7DFC6958111C068D15099F770
:100210008C2FDF91CF910895CF93DF93C82FD8E033
:1002200060E08C2F8170C6DFC6958111C068D15007
:10023000B9F78C2FDF91CF910895CF93DF93CDB78E
:10024000DEB7CB58D1090FB6F894DEBF0FBECDBFD5
:100250001092C50083E38093C40088E98093C100B5
:1002600080E091E090936302809362029093610238
:1002700080936002789488E893E128EC30E0F901FB
:100280003197F1F70197D9F78EE091E09F938F9323
:1002900087D3219A80E48093800089E08093810055
:1002A00010928500109284001092890010928800AC
:1002B00088E080936900E99A78940F900F9050E558
:1002C000752E60E2E62E6EE4F62E78E2C72E71E01F
:1002D000D72E05E311E0ECE1AE2EE1E0BE2EF8EC06
:1002E0008F2E912C0CC0BF92AF925AD30F900F90CB
:1002F00088E893E1F4013197F1F70197D9F784B1D8
:100300008C6284B924987CBC8CB58C7F8CBD8DB5F7
:1003100081608DBD229A2A9AC7010197F1F72A9828
:1003200080ECBEDE2A9AC7010197F1F740E860EE43
:100330008FE0BCDE8EE0EDDE807E8038A1F664E0EA
:100340008AE2CFDE6AEB89E2CCDE67E088E2C9DED2
:100350004FEF63E08BE2AADE8BE2DBDE1F928F932E
:10036000DF92CF921DD360E680E6BBDE48E06FEF00
:100370008FE09CDE40E060EE8FE098DE0F900F9003
:100380000F900F904AE0642E8EE0C3DE807E19F05D
:100390006A94D1F702C061100CC08EE0BADE1F92E1
:1003A0008F931F930F93FCD20F900F900F900F908D
:1003B0009ACFC12CD12CEE24E394F12CEC0EFD1E2F
:1003C00031E8232E312C2C0E3D1E29E0220E311C4B
:1003D0008EE491E09F938F93E3D24091600250911D
:1003E000610260E870E0C70182D2CCDE00E112E079
:1003F0000F900F9099249A94412CC4DE811141C032
:1004000080EF0ADF512C80E4782E91E8A92EB12CE0
:10041000AC0EBD1EB8EF8B2E870C60E081E0CADE0B
:10042000682E60E081E0C6DE882319F0662079F04E
:1004300024C061100CC0791438F0F501808180FF70
:1004400006C0971001C003C0572C6624639460E077
:10045000862D8170AFDEF50180818695611001C027
:1004600002C08068F50180837A947810D6CFFFEFC0
:10047000AF1ABF0A7110CECF02C0AEEF5A2E952C24
:1004800002C099249A94892D81508D3F20F02FEF3E
:1004900092120DC026C0CF57DF4F8881C158D0407F
:1004A000883229F0803119F0823209F0A6CF3EEF70
:1004B0009316B9F0FE01EF57FF4F80E090E02191D5
:1004C000D801A80FB91F2C93019688309105B9F770
:1004D0004394992031F0085F1F4F4AE044128DCFBA
:1004E00005C0411003C081E591E01FC11F924F92EA
:1004F00083E691E09F938F9353D20F900F900F90CC
:100500000F904F9B10C13EDE8CEC86DE84E46FDEE4
:100510008CE49DE128EC30E0F9013197F1F7019787
:10052000D9F78CE49DE128EC30E0F9013197F1F73F
:100530000197D9F782E08983F0E18F2EF2E09F2EB8
:10054000A12CB12C552453948501E3E0000F111F19
:10055000EA95E1F7005F1D4F15DE0115110571F0F9
:1005600085E55ADE380158E0650E711CF80181916D
:100570008F0152DE06151705C9F702C08CEC4CDE60
:100580008EEB4ADE8E010F571F4F38018FEF44DE8E
:10059000F30181933F01E215F305C1F780E0F80113
:1005A00021918F0198E0322F3827432F417030FF7F
:1005B00002C0F8E18F278695413009F480682695BE
:1005C000915089F70215130551F781114EC0B3C040
:1005D00091958195910961E0283211F0223289F4D8
:1005E000CB57DF4F2881C558D0402076203231F0DC
:1005F000203431F0211105C0887F03C08C7F01C0F9
:100600008E7FAC0174E0569547957A95E1F77AE0D4
:10061000749F9001759F300D11248F709927E0E829
:10062000F2E08E9F80018F9F100D9E9F100D112470
:10063000611101C01E5F012F112706950695020F5B
:10064000131F662319F01195019511090235F3E086
:100650001F0741F00A3D2DEF120724F0033E34E05E
:1006600013075CF000ED17E008C085E791E09F9369
:100670008F9396D10F900F902DC0612E772467FC39
:100680007A941F930F93C80199279F938F93C30167
:1006900099279F938F9348E851E05F934F9380D1C0
:1006A000F701E50DF11D6082852D8F5FF701E80FE1
:1006B000F11D0083539453948FEFA81AB80A98E061
:1006C000890E911C0FB6F894DEBF0FBECDBFA414E7
:1006D00008F43ACF86010F5F1F4F2A9880E4E0DCD0
:1006E000C60123E0969587952A95E1F7D9DC8C2DF4
:1006F0008295880F807ED4DC80E0D2DC80E0D0DC84
:10070000852DCEDC670104C0F60181916F01C8DC44
:100710008C2D8E198515C0F32A9A2A9881E8C0DCA1
:100720002A9A680155CE89E991E09F938F9338D139
:100730000F900F904DCEF4012081CE57DF4FF881FE
:10074000C258D040C557DF4FF883CB58D040C6576A
:10075000DF4F1882CA58D040CF57DF4F8881C15829
:10076000D040C657DF4F48815981CA58D040482BE6
:10077000CA0197FD2DCF60E02FCF1F920F920FB6C9
:100780000F921124FF920F931F932F933F934F9338
:100790005F936F937F938F939F93AF93BF93CF9309
:1007A000DF93EF93FF938CE2B4DCF82E81FF27C038
:1007B0002A9883E075DC81E773DCC0E0D0E00BEAC7
:1007C00011E0A5DC1F928F93DF93CF931F930F93BC
:1007D000E7D021960F900F900F900F900F900F90F1
:1007E000CD30D10571F72A9A2BEB31E03F932F934F
:1007F000D7D040E062E08CE259DC0F900F90F0FE21
:1008000035C02A9883E04CDC81E64ADC80DC28E0B5
:10081000829FC001112490930F0280930E02C09119
:100820000E02D0910F0273DC829586958770C82BDB
:10083000D0930F02C0930E026ADC69DC68DC8093FF
:100840000D0210E007C0C12FD0E061DCCB5FDD4FAF
:1008500088831F5F80910D021817A8F32A9A81E000
:100860008093040240E061E08CE220DCF2FE04C0F0
:1008700040E064E08BE21ADCFF91EF91DF91CF91D1
:10088000BF91AF919F918F917F916F915F914F91A8
:100890003F912F911F910F91FF900F900FBE0F90DE
:1008A0001F9018951F920F920FB60F9211248F93DD
:1008B0009F93AF93BF93EF93FF93E3E0F2E0A081A8
:1008C000B0E08091C600AD53BE4F8C93808190E024
:1008D00001968F7399278083FF91EF91BF91AF911C
:1008E0009F918F910F900FBE0F901F901895A0E0D1
:1008F000B0E0ECE7F4E0F4C2EC016A01FA018381B4
:1009000080FD03C0C0E0D0E01AC016161706D4F769
:100910007B018E010EC0C6013BD28F3FFFEF9F07C8
:1009200089F3F80181938F01F1E0EF1AF1080A973A
:1009300021F021E0E216F10471F7F8011082CE01F6
:10094000CDB7DEB7E8E0E8C20F931F93CF93DF93F4
:100950008C01EB018B8181FD03C00FEF1FEF1AC0EB
:1009600082FF0DC02E813F818C819D812817390720
:1009700064F4E881F9810193F983E88306C0E8858E
:10098000F985802F0995892B41F78E819F810196EA
:100990009F838E83C801DF91CF911F910F9108959E
:1009A000A2E0B0E0E5EDF4E0A1C2FE01379661916E
:1009B0007191FA83E983AF018091620290916302A1
:1009C00003D02296E2E0AEC2ACE0B0E0E9EEF4E0A3
:1009D0007DC27C016B018A01FC0117821682838132
:1009E00081FFBAC188248394912C8C0E9D1EF7013F
:1009F0009381F60193FD859193FF81916F01882387
:100A000009F4A6C1853239F493FD859193FF819154
:100A10006F01853221F4B70190E096DFE8CF712CA9
:100A2000312C20E02032A8F48B3261F028F480329F
:100A300051F0833271F40BC08D3239F0803349F4B8
:100A4000216028C02260246025C0286023C0206166
:100A500021C027FD27C0382F30533A3078F426FFC5
:100A600006C0FAE07F9E300D1124732E13C08AE079
:100A7000389E300D1124332E20620CC08E3221F4AA
:100A800026FD66C1206406C08C3611F4206802C0C1
:100A9000883641F4F60193FD859193FF81916F01B2
:100AA0008111C0CF982F9554933018F09052933005
:100AB00028F40C5F1F4FFFE3F9830DC0833631F03C
:100AC000833771F0833509F05AC022C0F801808164
:100AD00089830E5F1F4F66246394712C540114C0E8
:100AE0002801F2E04F0E511CF801A080B18026FFD2
:100AF00003C0672D70E002C06FEF7FEFC5012C8748
:100B00003CD13C0182012C856FE7262E222217C0A2
:100B10002801F2E04F0E511CF801A080B18026FFA1
:100B200003C0672D70E002C06FEF7FEFC5012C8717
:100B300019D13C012C8550E8252E222A820123FC64
:100B40001AC005C0B70180E290E0FEDE3A94832D22
:100B500090E068167906B0F30EC0F50127FC859188
:100B600027FE81915F01B70190E0EEDE31103A94EB
:100B7000F1E06F1A71086114710479F7E6C08436E8
:100B800011F0893639F5F80127FF07C060817181BE
:100B9000828193810C5F1F4F08C06081718188271B
:100BA00077FD8095982F0E5F1F4F4FE6642E6222CF
:100BB00097FF09C090958095709561957F4F8F4FF5
:100BC0009F4FF0E86F2A2AE030E0A40121D1A82E3F
:100BD000A81843C0853731F43FEEB32EB2222AE085
:100BE00030E024C099EFB92EB2228F36B9F020F44C
:100BF000883509F0ADC00DC0803721F0883709F085
:100C0000A7C002C020E1B22AB4FE0BC084E0B82A1B
:100C100008C024FF09C0E6E0BE2A06C028E030E094
:100C200005C020E130E002C020E132E0F801B7FE6B
:100C300007C060817181828193810C5F1F4F06C064
:100C40006081718180E090E00E5F1F4FA401E0D0D1
:100C5000A82EA8188FE7682E6B2066FE0BC0362DD5
:100C60003E7FA71450F464FE0AC062FC08C0362D13
:100C70003E7E05C0BA2C362D03C0BA2C01C0B72C5D
:100C800034FF0DC0FE01EA0DF11D8081803311F4A7
:100C9000397E09C032FF06C0B394B39404C0832FD9
:100CA000867809F0B39433FD13C030FF0EC07A2C60
:100CB000B31458F4730C7B18B32C07C0B70180E24F
:100CC00090E03C8741DEB3943C85B314B8F304C094
:100CD000B31410F43B1801C0312C34FF11C0B7011C
:100CE00080E390E03C8730DE3C8532FF1CC031FF62
:100CF00003C088E590E002C088E790E0B7010CC02F
:100D0000832F867881F031FD02C080E201C08BE242
:100D100037FD8DE2B70190E017DE05C0B70180E333
:100D200090E012DE7A94A714C8F3AA94F401EA0DB5
:100D3000F11DB701808190E007DEA110F6CF05C05C
:100D4000B70180E290E000DE3A943110F9CF4FCE47
:100D5000F7012681378102C02FEF3FEFC9012C96A2
:100D6000E2E1D0C0FC010590615070400110D8F75D
:100D7000809590958E0F9F1F0895FC0161507040E3
:100D800001900110D8F7809590958E0F9F1F0895C0
:100D9000CF93DF93EC013B8130FF34C036FF0AC0B4
:100DA0003F7B3B838E819F8101969F838E832A8127
:100DB00030E02AC032FF0FC0E881F9818081992795
:100DC00087FD9095009719F430623B831BC03196E4
:100DD000F983E8830EC0EA85FB85099597FF09C072
:100DE0002B81019611F480E101C080E2822B8B837C
:100DF00009C02E813F812F5F3F4F3F832E839C018F
:100E0000332702C02FEF3FEFC901DF91CF91089543
:100E1000FA01AA27283051F1203181F1E8946F932B
:100E20006E7F6E5F7F4F8F4F9F4FAF4FB1E03ED0D1
:100E3000B4E03CD0670F781F891F9A1FA11D680F6F
:100E4000791F8A1F911DA11D6A0F711D811D911DA2
:100E5000A11D20D009F468943F912AE0269F112417
:100E60003019305D3193DEF6CF010895462F47707B
:100E7000405D4193B3E00FD0C9F7F6CF462F4F70D6
:100E8000405D4A3318F0495D31FD4052419302D034
:100E9000A9F7EACFB4E0A6959795879577956795DA
:100EA000BA95C9F700976105710508959B01AC01DA
:100EB0000A2E06945795479537952795BA95C9F701
:100EC000620F731F841F951FA01D08952F923F92DC
:100ED0004F925F926F927F928F929F92AF92BF924A
:100EE000CF92DF92EF92FF920F931F93CF93DF93F6
:100EF000CDB7DEB7CA1BDB0B0FB6F894DEBF0FBE53
:100F0000CDBF09942A88398848885F846E847D849F
:100F10008C849B84AA84B984C884DF80EE80FD80A1
:100F20000C811B81AA81B981CE0FD11D0FB6F89417
:0E0F3000DEBF0FBECDBFED010895F894FFCFD8
:100F3E0000000003000000009400A0000000737980
:100F4E007374656D2073746172740A006D63703210
:100F5E003531353A20300A0063616E696E74653A38
:100F6E002025780A0063616E73746174206E6F744D
:100F7E0020636F72726563743A2025780A003E20F2
:100F8E00006E6F2073656E736F727320666F756E71
:100F9E00640A0025642073656E736F727320666F2A
:100FAE00756E640A006572726F722073656E736F70
:100FBE00725F726561640A00726561643A20257819
:100FCE00257820282564290A006572726F722073B5
:100FDE00746172745F6D6561730A0072312062799B
:100FEE0074652025643A2025780A00524541440A4A
:020FFE000000F1
:00000001FF
