:1000000033C000004CC000004AC0000048C00000DF
:1000100046C0000044C0000042C0000040C00000D4
:100020003EC000003CC000003AC0000038C00000E4
:1000300036C0000034C0000032C0000030C00000F4
:100040002EC000002CC000005AC2000028C00000D2
:1000500026C0000024C0000022C0000020C0000014
:100060001EC000001CC0000011241FBECFEFD8E04E
:10007000DEBFCDBF11E0A0E0B1E0E4E7F5E002C0F3
:1000800005900D92AE30B107D9F711E0AEE0B1E0C6
:1000900001C01D92A63AB107E1F7C4D069C2B0CF42
:1000A00001C08DE09091C00095FFFCCF8093C60009
:1000B0008A30B9F390E008951F93CF93DF9300D077
:1000C00000D01F92CDB7DEB7009751F480E30F90B8
:1000D0000F900F900F900F90DF91CF911F91E0CF75
:1000E00014E02AE030E0E1E0F0E0EC0FFD1FE10F6A
:1000F000F11DB90129D2805D80831150CB01009799
:1001000091F7E1E0F0E0EC0FFD1FE10FF11D8081C0
:10011000C7DF1F5F1530A8F30F900F900F900F905F
:100120000F90DF91CF911F910895CF93DF9390911E
:100130004F0180910E019817D1F3E0910E01F0E08C
:10014000E15FFE4FC081D0E080910E0190E001960A
:100150008F73992780930E01CD30D10511F4CAE039
:10016000D0E08C2F9DDFCE01DF91CF9108955F9875
:10017000579A80EC93E00197F1F79FB7F89457985E
:100180008AEA8A95F1F789B19FBFE0E4F3E03197FD
:10019000F1F74F9B02C08078089581E00895982F71
:1001A0002FB7F894579A85E08A95F1F791115798EF
:1001B00082E28A95F1F789B1880F880B892392E74B
:1001C0009A95F1F75798662311F05F9A579A2FBFC7
:1001D0009AE19A95F1F70895CF93DF93C82FD8E06D
:1001E0008C2F8170D13011F060E001C061E0D7DF69
:1001F000C6958111C068D15099F78C2FDF91CF91AE
:100200000895CF93DF93C82FD8E060E08C2F8170E2
:10021000C6DFC6958111C068D150B9F78C2FDF9128
:10022000CF910895CF93DF93CDB7DEB729970FB65F
:10023000F894DEBF0FBECDBF1092C50083E380935C
:10024000C40088E98093C10080E091E09093A3010D
:100250008093A2019093A1018093A0017894789457
:100260005E014AE0A40EB11CA8E12A2E80DFF0E571
:10027000EF2EF1E0FF2E312CCC24CA9478DF8111CF
:100280003EC080EFBEDF812CE0E4DE2E8E010F5FEA
:100290001F4F78EF772E7D0C60E081E080DF982E95
:1002A00060E081E07CDF882319F0992079F023C099
:1002B00091100CC0DC1438F0F801808180FF06C07A
:1002C000CD1001C003C08D2C9924939460E0892D3A
:1002D000817065DFF80180818695911001C002C0B0
:1002E0008068F8018083DA94D710D6CF0F5F1F4F54
:1002F000D110CFCF02C06EEF862EC82C02C0CC2406
:10030000CA948C2D81508D3F20F0FFEFCF1209C091
:1003100022C08981883229F0803119F0823209F0B7
:10032000ADCF4EEFC416B9F0FE01319680E090E0FB
:100330002191D701A80FB91F2C9301968830910500
:10034000B9F73394CC2039F058E0E50EF11C7AE08F
:10035000371294CF0CC031100AC088E893E128EC22
:1003600030E0F9013197F1F70197D9F77FCF4F9B33
:100370007DCFFDDE8CEC45DF84E42EDF8CE49DE157
:1003800028EC30E0F9013197F1F70197D9F740E512
:10039000C42E41E0D42EE12CF12C50E8852E52E001
:1003A000952E870133E0000F111F3A95E1F7005BAE
:1003B0001E4FDDDE0115110571F085E522DF3801E4
:1003C00088E0680E711CF80181918F011ADF061513
:1003D0001705C9F702C08CEC14DF8EEB12DF8E011B
:1003E0000F5F1F4F38018FEF0CDFF30181933F0147
:1003F000EA15FB05C1F780E0F80121918F0198E033
:10040000322F3827432F417030FD822586954130A9
:1004100009F480682695915099F70A151B0561F734
:10042000811124CF60C091958195910961E02832B6
:1004300011F0223269F42D812076203231F02034FF
:1004400031F0211105C0887F03C08C7F01C08E7FF1
:10045000AC0124E0569547952A95E1F7FAE0F49F20
:100460009001F59F300D11248F709927889D800190
:10047000899D100D989D100D1124611101C01E5F02
:10048000012F112706950695020F131F662319F0F9
:10049000119501951109023543E0140741F00A3D19
:1004A0005DEF150724F0033E74E0170714F000ED2C
:1004B00017E01016110614F4C80106C08DE2F0DD35
:1004C00088279927801B910BF7DD8AE0E9DD8FEF04
:1004D000E81AF80AE8E0CE0ED11CE31408F461CF64
:1004E0008AE0DEDD44CFF60120815A80412C8981EB
:1004F000A201482BCA0197FD96CF60E098CF1F92CA
:100500000F920FB60F9211248F939F93AF93BF93C7
:10051000EF93FF93EFE4F1E0A081B0E08091C6009B
:10052000A15FBE4F8C93808190E001968F739927D5
:100530008083FF91EF91BF91AF919F918F910F9029
:100540000FBE0F901F901895AA1BBB1B51E107C04F
:10055000AA1FBB1FA617B70710F0A61BB70B881F53
:10056000991F5A95A9F780959095BC01CD010895E2
:04057000F894FFCF2D
:0E057400000000030000000050009500000091
:00000001FF
